 LABEL  0ESPOL  0COMPILE00187252? EXECUTE ESPOL/DISK                                                     ESPOL  /DISK


                      BURROUGHS B-5700 ESPOL COMPILER MARK XIII.0  WEDNESDAY, 09/09/87,   8:34 AM.


                                    STARTER DECKS                                               00010000 T  0000:0
                                 MAY 1969   BY P.E.G.                                           00020000 T  0000:0
                $OMIT    00040050,IF COOL;                                                      00030000 T  0000:0
                                   B-5500 COLD START PROGRAM                                    00040000 T  0000:0
                $INCLUDE 00060050,IF COOL;                                                      00050000 T  0000:0
                 BEGIN DEFINE P=POLISH#,M=MEMORY#;                                              00070000 T  0000:0
PRT(201) = *SEGMENT DESCRIPTOR*
                         REAL CORE,READBACK,LOADER,J,I,DISKTOP,CARD,TYPE,MN,YR;                 00080000 T  0000:0
PRT(202) = CORE
PRT(203) = READBACK
PRT(204) = LOADER
PRT(205) = J
PRT(206) = I
PRT(207) = DISKTOP
PRT(210) = CARD
PRT(211) = TYPE
PRT(212) = MN
PRT(213) = YR
                         ARRAY INFO[*],SHAR[*],BUFFER[*],TEMMP[*],FILEX[*];                     00090000 T  0000:0
PRT(214) = INFO
PRT(215) = SHAR
PRT(216) = BUFFER
PRT(217) = TEMMP
PRT(220) = FILEX
                         ARRAY FILEH[*];                                                        00100000 T  0000:0
PRT(221) = FILEH
                         ARRAY LABELS[*];                                                       00110000 T  0000:0
PRT(222) = LABELS
                         INTEGER DY,LOADED,QX,XY,N,T,K,SYSNO,NUMWDS;                            00120000 T  0000:0
PRT(223) = DY
PRT(224) = LOADED
PRT(225) = QX
PRT(226) = XY
PRT(227) = N
PRT(230) = T
PRT(231) = K
PRT(232) = SYSNO
PRT(233) = NUMWDS
                      LABEL    READCARD,FENCE ,ESU,DATE,FILE,USE,DKA,DKB,STOP,EXIT,TIMER        00130000 T  0000:0
                              ,ERROR,START,READNEXT,TART,OPTN,COMUSE,DIRECT,DIRECTORYTOP        00140000 T  0000:0
                              ,MRCLEAN,XLOADED,HANDLE,SYSTEMS;                                  00150000 T  0000:0
                $INCLUDE  00170050,IF COOL;                                                     00160000 T  0000:0
                       SWITCH TYPESWITCH←ERROR,FILE,FENCE,STOP,ESU,USE,DATE,USE,OPTN            00180000 T  0000:0
                                         ,DIRECT,DIRECTORYTOP,SYSTEMS,XLOADED;                  00190000 T  0000:0
                    ARRAY MONTHS[12]← 0,31,59,90,120,151,181,212,243,273,304,334;               00200000 T  0000:0
PRT(234) = MONTHS
                                                                             START OF SAVE SEGMENT; BASE ADDRESS = 00000
                                                                                                        SIZE= 0012 WORDS
                    ARRAY FIRST[13] ← 0,                                                        00210000 T  0000:0
PRT(235) = FIRST
                                                                             START OF SAVE SEGMENT; BASE ADDRESS = 00012
                              "FILE0000",                                                       00220000 T  0000:0
                              "FENCE000",                                                       00230000 T  0000:0
                              "STOP0000",                                                       00240000 T  0000:0
                              "ESU00000",                                                       00250000 T  0000:0
                              "USE00000",                                                       00260000 T  0000:0
                              "DATE0000",                                                       00270000 T  0000:0
                              "TYPE0000",                                                       00280000 T  0000:0
                              "OPTN0000",                                                       00290000 T  0000:0
                              "DIRECTOR",                                                       00300000 T  0000:0
                              "DRCTRYTP",                                                       00310000 T  0000:0
                              "SYSTEMS0",                                                       00320000 T  0000:0
                              "←0000000";                                                       00330000 T  0000:0
                                                                                                        SIZE= 0013 WORDS
                    ARRAY OPTIONS[54] ← 0,                                                      00340000 T  0000:0
PRT(236) = OPTIONS
                                                                             START OF SAVE SEGMENT; BASE ADDRESS = 00025
                              "DRA00000",    %47, USE DRUM A                                    00350000 T  0000:0
                              "DRB00000",    %46, USE DRUM B                                    00360000 T  0000:0
                              "BOJ00000",    %45                                                00370000 T  0000:0
                              "EOJ00000",    %44                                                00380000 T  0000:0
                              "OPEN0000",    %43, TYPE FILE OPEN                                00390000 T  0000:0
                              "TERMNATE",    %42, CALL TERMINATE PROCEDURE                      00400000 T  0000:0
                              "DATE0000",    %41, INITIALIZE DATE @ H/L                         00410000 T  0000:0
                              "TIME0000",    %40, INITIALIZE TIME @ H/L                         00420000 T  0000:0
                              "ONEBREAK",    %39, USE ONLY ONE BREAKOUT TAPE                    00430000 T  0000:0
                              "AUTOPRNT",    %38, AUTOMATICALLY PRINT PBT                       00440000 T  0000:0
                              "CLEARWRS",    %37, CLEAR WRITE READY STATUS @ TERMINAL           00450000 T  0000:0
                              "DISCONDC",    %36, WRITE DISC. CODE ON TERMINAL                  00460000 T  0000:0
                              "CMPLFILE",    %35, TYPE WHEN COMPILER FILES OPEN & CLOSE         00470000 T  0000:0
                              "CLOSE000",    %34, TYPE FILE CLOSE                               00480000 T  0000:0
                              "ERRORMSG",    %33, ERROR MSGS WHEN PROGR RECOVERY USED           00490000 T  0000:0
                              "RET00000",    %32, TYPE MT RETENTION MESSAGES                    00500000 T  0000:0
                              "LIBMSG00",    %31, TYPE LIBRARY MESSAGES                         00510000 T  0000:0
                              "SCHEDMSG",    %30, TYPE SCHEDULE MESSAGES                        00520000 T  0000:0
                              "SECMSG00",    %29, TYPE FILE SECURITY MESSAGES                   00530000 T  0000:0
                              "DSKTOG00",    %28, PREVENT I/O BELOW USER DISK AREA              00540000 T  0000:0
                              "RELTOG00",    %27, PREVENT DISK RELEASE STATEMENT                00550000 T  0000:0
                              "PBDREL00",    %26, PRINTER BACKUP DISK RELEASE                   00560000 T  0000:0
                              "CHECK000",    %25, CHECK MEMORY LINKS                            00570000 T  0000:0
                              "DISKMSG0",    %24, TYPE DISK ERROR MESSAGES                      00580000 T  0000:0
                              "DISKLOG0",    %23  DISK LOGGING                                  00590000 T  0000:0
                              "LIBERR00",    %22  SUPPRESS LIBRARY ERROR MESSAGES               00600000 T  0000:0
                              "PBDONLY0",    %21  GO TO PRINTER BACK-UP ONLY                    00610000 T  0000:0
                              "SAVEPBT0",    %20  DONT STACK FILES ON PB TAPES                  00620000 T  0000:0
                              "RSMSG000",    %19  PRINT SET OR RESET MESSAGES                   00630000 T  0000:0
                              "AUTOUNLD",    %18  NO USER DISK WILL UNLOAD EXPIRED              00640000 T  0000:0
                              "RNALL000",    %17  RUN ALL DECKS(SHAREDISK)                      00650000 T  0000:0
                              "CODEOLAY",    %16  OLAY CODE TO ECM(AUXMEM)                      00660000 T  0000:0
                              "COREST00",    %15  JOB CORE ESTIMATES(STATISTICS)                00670000 T  0000:0
                              "DATAOLAY",    %14  OLAY DATA TO ECM(AUXMEM)                      00680000 T  0000:0
                              "HALT0000",    %13  MAKES SYSTM HANG ON-SHOULD HL MSG             00690000 T  0000:0
                              "REMOTE00",    %12  ENABLES DATACOM(TSS, IF NOT DCP)              00700000 T  0000:0
                              "CEMESS00",    %11  LIBRARY MESSAGES FOR CANDE                    00710000 T  0000:0
                              "BATCHZIP",    %10  ZIP DECKS TO RUN ON BATCH(SHAREDISK)          00720000 T  0000:0
                              "NOBATCH0",    %9  CONTROLS RUNNING OF BATCH JOBS ON TSS          00730000 T  0000:0
                              "00000000",    %8   UNUSED                                        00740000 T  0000:0
                              "00000000",    %7   UNUSED                                        00750000 T  0000:0
                              "00000000",    %6   UNUSED                                        00760000 T  0000:0
                              "00000000",    %5   UNUSED                                        00770000 T  0000:0
                              "00000000",    %4   UNUSED                                        00780000 T  0000:0
                              "00000000",    %3   UNUSED                                        00790000 T  0000:0
                              "MOD3IOS0",    %2  MODEL III I/O CHANNELS                         00800000 T  0000:0
                              "00000000",    %1   UNUSED                                        00810000 T  0000:0
                              "OPTN0000",    %0                                                 00820000 T  0000:0
                              "←0000000";                                                       00870000 T  0000:0
                                                                                                        SIZE= 0054 WORDS
                    ARRAY MESSAGE[12] ←                                                         00880000 T  0000:0
PRT(237) = MESSAGE
                                                                             START OF SAVE SEGMENT; BASE ADDRESS = 00079
                              "DIRECTRY",                                                       00890000 T  0000:0
                $OMIT      00910050,IF COOL;                                                    00900000 T  0000:0
                              " BUILT← ",                                                       00910000 T  0000:0
                $INCLUDE 00930050,IF COOL;                                                      00920000 T  0000:0
                              "INCORREC",                                                       00940000 T  0000:0
                              "T CARD←0",                                                       00950000 T  0000:0
                              "    ERRO",                                                       00960000 T  0000:0
                              "R ←     ",                                                       00970000 T  0000:0
                              "DIRECTOR",                                                       00980000 T  0000:0
                              "YTOP NOT",                                                       00990000 T  0000:0
                              " SET←   ",                                                       01000000 T  0000:0
                              "LOADER L",                                                       01010000 T  0000:0
                              "OADED AL",                                                       01020000 T  0000:0
                              "READY←  ";                                                       01030000 T  0000:0
                                                                                                        SIZE= 0012 WORDS
                 ARRAY LOADBUTTON[15]←                                                          01040000 T  0000:0
PRT(240) = LOADBUTTON
                                                                             START OF SAVE SEGMENT; BASE ADDRESS = 00091
                                             OCT0441000401570421,  %  1    20                   01050000 T  0000:0
                                             OCT0157000000104411,  %  2    21                   01060000 T  0000:0
                                             OCT0211001441310055,  %  3    22                   01070000 T  0000:0
                                             OCT4155124500004425,  %  4    23                   01080000 T  0000:0
                                             OCT0060013101600064,  %  5    24                   01090000 T  0000:0
                                             OCT4441010402530305,  %  6    25                   01100000 T  0000:0
                                             OCT0100023441310055,  %  7    26                   01110000 T  0000:0
                                             OCT0062011441310055,  %  8    27                   01120000 T  0000:0
                                             OCT0066013441310055,  %  9    30                   01130000 T  0000:0
                                             OCT0072015441310055,  % 10    31                   01140000 T  0000:0
                                             OCT0076017441310055,  % 11    32                   01150000 T  0000:0
                                             OCT5140000047700200,  % 12    33                   01160000 T  0000:0
                                             OCT0441100401004441,  % 13    34                   01170000 T  0000:0
                                             OCT0253010420527405,  % 14    35                   01180000 T  0000:0
                                             OCT7405005101002411;  % 15    36                   01190000 T  0000:0
                                                                                                        SIZE= 0015 WORDS
                 REAL STREAM PROCEDURE SEARCH(CARD,FIRST,N); VALUE CARD,N;                      01200000 T  0000:0
PRT(241) = SEARCH
                         BEGIN LABEL L,EXIT;                                                    01210000 T  0000:0
                                                                             START OF SAVE SEGMENT; BASE ADDRESS = 00106
                              SI ← CARD; SI ← SI-N; CARD ← SI;                                  01220000 T  0000:0
                        0000  RSA   0003  0353
                        0001  CRF   0001  0143
                        0002  SRS   0000  0030
                        0003  SSA   0003  0315
                         L:   SI ← FIRST; SI ← SI+8; TALLY ← TALLY+1;                           01230000 T  0001:0
                        0004  RSA   0002  0253
                        0005  SFS   0010  1031
                        0006  INC   0001  0140
                              IF SC = "←" THEN BEGIN TALLY ← 0; GO TO EXIT END;                 01240000 T  0001:3
                        0007  TEQ   0037  3724
                        0010  JFC   0000  0045
                        0011  SEC   0000  0042
                        0012  TRS   0077  7777
                        0010  JFC   0002  0245
                              DI ← FIRST; DI ← DI+8; FIRST ← DI;                                01250000 T  0002:3
                        0013  RDA   0002  0204
                        0014  SFD   0010  1016
                        0015  SDA   0002  0214
                              SI ← CARD;                                                        01260000 T  0003:2
                        0016  RSA   0003  0353
                              IF N SC ≠ DC THEN GO TO L;                                        01270000 T  0003:3
                        0017  CRF   0001  0143
                        0020  CNE   0000  0061
                        0021  JFC   0000  0045
                        0022  JRV   0017  1757
                        0021  JFC   0001  0145
                         EXIT:SEARCH ← TALLY;                                                   01280000 T  0004:3
                        0012  JFW   0010  1047
                        0023  STC   0005  0541
                         END;                                                                   01290000 T  0005:0
                        0024  EXC   0000  0000
                                                                                                        SIZE= 0006 WORDS
                 REAL STREAM PROCEDURE ISOLATE(CARD);                                           01300000 T  0000:0
PRT(242) = ISOLATE
                         BEGIN LABEL L,A,X,E;                                                   01310000 T  0000:0
                                                                             START OF SAVE SEGMENT; BASE ADDRESS = 00112
                              LOCAL T;                                                          01320000 T  0000:0
                              SI ← CARD; SI ← SI+5; SI ← SC;                                    01330000 T  0000:0
                        0000  RSA   0001  0153
                        0001  SFS   0005  0531
                        0002  TSA   0000  0056
                         L:   IF SC = " " THEN BEGIN SI ← SI+1; GO TO L END;                    01340000 T  0000:3
                        0003  TEQ   0060  6024
                        0004  JFC   0000  0045
                        0005  SFS   0001  0131
                        0006  JRV   0004  0457
                        0004  JFC   0002  0245
                              IF SC = """ THEN                                                  01350000 T  0001:3
                        0007  TEQ   0077  7724
                        0010  JFC   0000  0045
                                   BEGIN SI ← SI+1;                                             01360000 T  0002:1
                        0011  SFS   0001  0131
                                       17(SI ←SI+1; TALLY ← TALLY+1;                            01370000 T  0002:2
                        0012  BNS   0021  2152
                        0013  SFS   0001  0131
                        0014  INC   0001  0140
                                             IF SC = """ THEN                                   01380000 T  0003:1
                        0015  TEQ   0077  7724
                        0016  JFC   0000  0045
                                                  BEGIN T ← SI; DI ← T; DS ← LIT " ";           01390000 T  0003:3
                        0017  SSA   0002  0215
                        0020  RDA   0002  0204
                        0021  TRP   0001  0174
                        0022  CEQ   0000  0060
                                                       JUMP OUT TO X                            01400000 T  0004:3
                        0023  JNS   0000  0046
                        0024  TRS   0077  7777
                                                  END;);                                        01410000 T  0005:1
                        0016  JFC   0006  0645
                        0025  ENS   0000  0051
                         E:             TALLY ← 0; GO TO X;                                     01420000 T  0005:2
                        0026  SEC   0000  0042
                        0027  TEQ   0000  0024
                                   END;                                                         01430000 T  0006:0
                        0010  JFC   0017  1745
                              IF SC = ALPHA THEN BEGIN                                          01440000 T  0006:0
                        0030  TAN   0021  2136
                        0031  JFC   0000  0045
                             17(SI←SI+1; TALLY ← TALLY+1;                                       01450000 T  0006:2
                        0032  BNS   0021  2152
                        0033  SFS   0001  0131
                        0034  INC   0001  0140
                                   IF SC = ALPHA THEN GO TO A;                                  01460000 T  0007:1
                        0035  TAN   0021  2136
                        0036  JFC   0000  0045
                        0037  TRS   0077  7777
                        0036  JFC   0001  0145
                                   JUMP OUT TO X; A:;);                                         01470000 T  0008:0
                        0040  JNS   0000  0046
                        0041  TGR   0000  0027
                        0037  JFW   0002  0247
                        0042  ENS   0000  0051
                              GO TO E;                                                          01480000 T  0008:3
                        0043  JRV   0016  1657
                              END ELSE BEGIN SI ← SI+1; TALLY ← 1 END;                          01490000 T  0009:0
                        0044  JFW   0000  0047
                        0031  JFC   0013  1345
                        0045  SFS   0001  0131
                        0046  SEC   0001  0142
                        0044  JFW   0002  0247
                         X:   ISOLATE ← TALLY;                                                  01500000 T  0009:3
                        0041  JFW   0005  0547
                        0027  JFW   0017  1747
                        0024  JFW   0022  2247
                        0047  STC   0004  0441
                              T ← SI;                                                           01510000 T  0010:0
                        0050  SSA   0002  0215
                              DI ← CARD; SI ← LOC T; DS ← WDS;                                  01520000 T  0010:1
                        0051  RDA   0001  0104
                        0052  SES   0002  0222
                        0053  TRW   0001  0105
                         END;                                                                   01530000 T  0011:0
                        0054  EXC   0000  0000
                                                                                                        SIZE= 0012 WORDS
                 SAVE PROCEDURE SPECIAL(C); VALUE C; REAL C;                                    01540000 T  0000:0
                                                                             START OF SAVE SEGMENT; BASE ADDRESS = 00124
PRT(243) = SPECIAL
                         BEGIN IF ISOLATE(CARD) ≠ 1 THEN GO TO ERROR;                           01550000 T  0000:0
                        0000  LITC  0000  0000
                        0001  MKS         0441
                        0002  LITC  0000  0000
                        0003  DESC  0210  1043
                        0004  OPDC  0242  1212
                        0005  LITC  0001  0004
                        0006  NEQ         0425
                        0007  LITC  0000  0000
PRT(244) = ERROR
                        0011  OPDC  0244  1222
                        0012  BFW         4231
                        0007  LITC  0002  0010
                        0010  BFC         0231
                              STREAM(C:CARD);                                                   01560000 T  0002:3
                        0013  NOP         0055
                        0014  OPDC  1601  7006
                        0015  MKS         0441
                        0016  OPDC  0210  1042
                        0017              4441
                                   BEGIN SI ← CARD; SI ← SI-1;                                  01570000 T  0004:0
                        0020  RSA   0001  0153
                        0021  SRS   0001  0130
                                        DI ← LOC C; DI ← DI+7;                                  01580000 T  0004:2
                        0022  SED   0003  0306
                        0023  SFD   0007  0716
                                        IF SC ≠ DC THEN TALLY ← 1;                              01590000 T  0005:0
                        0024  CNE   0001  0161
                        0025  JFC   0000  0045
                        0026  SEC   0001  0142
                        0025  JFC   0001  0145
                                        C ← TALLY;                                              01600000 T  0005:3
                        0027  STC   0003  0341
                                   END;                                                         01610000 T  0006:0
                        0030  LITC  0020  0100
                              IF P THEN GO TO ERROR;                                            01620000 T  0006:1
                        0033  OPDC  0244  1222
                        0034  BFW         4231
                        0031  LITC  0002  0010
                        0032  BFC         0231
                         END;                                                                   01630000 T  0007:1
                        0035  XIT         0435
                                                                                                        SIZE= 0008 WORDS
                 SAVE PROCEDURE IOERR(IOD); VALUE IOD; REAL IOD; FORWARD;                       01640000 T  0000:0
                                                                             START OF SAVE SEGMENT; BASE ADDRESS = 00132
PRT(245) = IOERR
                 SAVE REAL PROCEDURE EOM; FORWARD;                                              01650000 T  0000:0
                                                                             START OF SAVE SEGMENT; BASE ADDRESS = 00132
PRT(246) = EOM
                 SAVE PROCEDURE IO(ADDRESS,IOD); VALUE ADDRESS,IOD; REAL ADDRESS,IOD;           01660000 T  0000:0
                                                                             START OF SAVE SEGMENT; BASE ADDRESS = 00132
PRT(247) = IO
                         BEGIN REAL T;                                                          01670000 T  0000:0
STACK(F+1) = T
                              LABEL L;                                                          01680000 T  0000:0
                              IOD ← ADDRESS INX IOD;                                            01690000 T  0000:0
                        0000  LITC  0000  0000
                        0001  OPDC  1602  7012
                        0002  OPDC  1601  7006
                        0003  INX         0141
                        0004  LITC  0000  0000
                        0004  LITC  1601  7004
                        0005  STD         0421
                         L:   P([IOD],IIO);                                                     01700000 T  0001:2
                        0006  DESC  1601  7007
                        0007              4411
                              T ← EOM;                                                          01710000 T  0002:0
                        0010  MKS         0441
                        0011  OPDC  0246  1232
                        0012  LITC  1001  4004
                        0013  STD         0421
                              IF T.[30:3] ≠ 0 THEN                                              01720000 T  0003:0
                        0014  OPDC  1001  4006
                        0015              5055
                        0016              1345
                        0017  LITC  0000  0000
                        0020  NEQ         0425
                        0021  LITC  0000  0000
                                   IF QX THEN GO TO L ELSE QX := 2;                             01730000 T  0004:1
                        0023  OPDC  0225  1126
                        0024  LNG         0115
                        0025  LITC  0021  0104
                        0026  BBC         0131
                        0027  LITC  0002  0010
                        0030  LITC  0225  1124
                        0031  ISD         4121
                        0021  LITC  0007  0034
                        0022  BFC         0231
                              IF ADDRESS ≥ 0 THEN                                               01735000 T  0006:2
                        0032  OPDC  1602  7012
                        0033  LITC  0000  0000
                        0034  GEQ         0125
                        0035  LITC  0000  0000
                              IF T.[26:4] ≠ 0 THEN                                              01740000 T  0007:1
                        0037  OPDC  1001  4006
                        0040              4255
                        0041              1045
                        0042  LITC  0000  0000
                        0043  NEQ         0425
                        0044  LITC  0000  0000
                                   IF T.[29:1] AND T.[3:5]=6 AND M[ADDRESS]=@40 THEN            01750000 T  0009:0
                        0046  OPDC  1001  4006
                        0047              4555
                        0050              1045
                        0051  OPDC  1001  4006
                        0052              0355
                        0053              2445
                        0054  LITC  0006  0030
                        0055  EQL         4425
                        0056  LITC  0000  0000
                        0056  LND         0415
                        0057  LITC  0000  0000
                        0057  OPDC  1602  7012
                        0060  DESC  0200  1003
                        0061  INX         0141
                        0062  LOD         2021
                        0063  LITC  0040  0200
                        0064  EQL         4425
                        0065  LITC  0000  0000
                        0065  LND         0415
                        0066  LITC  0000  0000
                                   BEGIN M[ADDRESS] := 0;                                       01760000 T  0013:2
                        0070  OPDC  1602  7012
                        0071  DESC  0200  1003
                        0072  INX         0141
                        0073  LITC  0000  0000
                        0074  XCH         1025
                        0075  STD         0421
                                         M[ADDRESS+1] := 0;                                     01770000 T  0015:2
                        0076  OPDC  1602  7012
                        0077  LITC  0001  0004
                        0100  ADD         0101
                        0101  LITC  0000  0000
                        0101  DESC  0200  1003
                        0102  INX         0141
                        0103  LITC  0000  0000
                        0104  XCH         1025
                        0105  STD         0421
                                         GO TO L;                                               01780000 T  0017:2
                        0106  LITC  0102  0410
                        0107  BBW         4131
                                   END ELSE                                                     01790000 T  0018:0
                                   IF T.[29:1] AND T.[3:5]=10 AND M[ADDRESS]=0 THEN ELSE        01800000 T  0018:0
                        0066  LITC  0022  0110
                        0067  BFC         0231
                        0112  OPDC  1001  4006
                        0113              4555
                        0114              1045
                        0115  OPDC  1001  4006
                        0116              0355
                        0117              2445
                        0120  LITC  0012  0050
                        0121  EQL         4425
                        0122  LITC  0000  0000
                        0122  LND         0415
                        0123  LITC  0000  0000
                        0123  OPDC  1602  7012
                        0124  DESC  0200  1003
                        0125  INX         0141
                        0126  LOD         2021
                        0127  LITC  0000  0000
                        0130  EQL         4425
                        0131  LITC  0000  0000
                        0131  LND         0415
                        0132  LITC  0000  0000
                                        BEGIN                                                   01810000 T  0022:2
                        0132  LITC  0002  0010
                        0133  BFC         0231
                                        IOERR(IOD);                                             01820000 T  0023:2
                        0136  MKS         0441
                        0137  OPDC  1601  7006
                        0140  OPDC  0245  1226
                                        GO TO L;                                                01830000 T  0024:1
                        0141  LITC  0135  0564
                        0142  BBW         4131
                                        END;                                                    01840000 T  0024:3
                        0134  LITC  0005  0024
                        0135  BFW         4231
                        0110  LITC  0031  0144
                        0111  BFW         4231
                        0044  LITC  0075  0364
                        0045  BFC         0231
                        0035  LITC  0104  0420
                        0036  BFC         0231
                         END;                                                                   01850000 T  0024:3
                        0143  XIT         0435
                                                                                                        SIZE= 0025 WORDS
                 SAVE PROCEDURE IOERR(IOD); VALUE IOD; REAL IOD;                                01860000 T  0000:0
                                                                             START OF SAVE SEGMENT; BASE ADDRESS = 00157
                         BEGIN REAL T;                                                          01870000 T  0000:0
STACK(F+1) = T
                              LABEL EXIT,HANG;                                                  01880000 T  0000:0
                              IOD ← IOD.[3:5];                                                  01890000 T  0000:0
                        0000  LITC  0000  0000
                        0001  OPDC  1601  7006
                        0002              0355
                        0003              2445
                        0004  LITC  1601  7004
                        0005  STD         0421
                              T ← IF IOD=30 THEN "SPO" ELSE                                     01900000 T  0001:2
                        0006  OPDC  1601  7006
                        0007  LITC  0036  0170
                        0010  EQL         4425
                        0011  LITC  0000  0000
                        0013  DESC  1777  7777
                        0011  LITC  0003  0014
                        0012  BFC         0231
                                  IF IOD=10 THEN "CRA" ELSE                                     01910000 T  0003:2
                        0016  OPDC  1601  7006
                        0017  LITC  0012  0050
                        0020  EQL         4425
                        0021  LITC  0000  0000
                        0023  DESC  1777  7777
                        0021  LITC  0003  0014
                        0022  BFC         0231
                                  IF IOD= 6 THEN "DKA" ELSE                                     01920000 T  0005:2
                        0026  OPDC  1601  7006
                        0027  LITC  0006  0030
                        0030  EQL         4425
                        0031  LITC  0000  0000
                        0033  DESC  1777  7777
                        0031  LITC  0003  0014
                        0032  BFC         0231
                                  IF IOD= 4 THEN "DRA" ELSE "XXX";                              01930000 T  0007:2
                        0036  OPDC  1601  7006
                        0037  LITC  0004  0020
                        0040  EQL         4425
                        0041  LITC  0000  0000
                        0043  DESC  1777  7777
                        0041  LITC  0003  0014
                        0042  BFC         0231
                        0046  DESC  1777  7777
                        0044  LITC  0001  0004
                        0045  BFW         4231
                        0047              0001
                        0034  LITC  0011  0044
                        0035  BFW         4231
                        0047              0001
                        0024  LITC  0021  0104
                        0025  BFW         4231
                        0047              0001
                        0014  LITC  0031  0144
                        0015  BFW         4231
                        0047              0001
                        0047  LITC  1001  4004
                        0050  STD         0421
                              STREAM(T,A←[MESSAGE[4]]);                                         01940000 T  0010:1
                        0051  NOP         0055
                        0052  OPDC  1001  4006
                        0053  LITC  0004  0020
                        0054  DESC  0237  1177
                        0051  MKS         0441
                        0055              4441
                                   BEGIN SI ← LOC T; SI ← SI+5; DS ← 3CHR; END;                 01950000 T  0011:2
                        0056  SES   0002  0222
                        0057  SFS   0005  0531
                        0060  TRS   0003  0377
                        0061  LITC  0020  0100
                              IO([MESSAGE[4]] INX 0,@740000000000000);                          01960000 T  0012:2
                        0062  MKS         0441
                        0063  LITC  0004  0020
                        0064  DESC  0237  1177
                        0065  LITC  0000  0000
                        0066  INX         0141
                        0067  LITC  0000  0000
                        0067  DESC  1777  7777
                        0070  OPDC  0247  1236
                              IF IOD =10 THEN                                                   01970000 T  0014:1
                        0071  OPDC  1601  7006
                        0072  LITC  0012  0050
                        0073  EQL         4425
                        0074  LITC  0000  0000
                                   BEGIN DO UNTIL P(RRR).[24:1] = 0;                            01980000 T  0015:0
                        0076              2431
                        0077              4055
                        0100              1545
                        0101  LITC  0000  0000
                        0102  EQL         4425
                        0103  LITC  0000  0000
                        0103  LITC  0007  0034
                        0104  BBC         0131
                                        DO UNTIL P(RRR).[24:1];                                 01990000 T  0017:1
                        0105              2431
                        0106              4055
                        0107              1545
                        0110  LITC  0005  0024
                        0111  BBC         0131
                                   END ELSE                                                     02000000 T  0018:2
                         HANG: GO TO HANG;                                                      02010000 T  0018:2
                        0013  OPDC  1421  6106
0114  0000000000624746                                                                          02010000 T  0018:2
                        0023  OPDC  1420  6102
0120  0000000000235121                                                                          02010000 T  0018:2
                        0033  OPDC  1417  6076
0124  0000000000244221                                                                          02010000 T  0018:2
                        0043  OPDC  1416  6072
0130  0000000000245121                                                                          02010000 T  0018:2
                        0046  OPDC  1416  6072
0134  0000000000676767                                                                          02010000 T  0018:2
                        0067  OPDC  1413  6056
0140  0740000000000000                                                                          02010000 T  0018:2
                        0074  LITC  0012  0050
                        0075  LFC         2231
                        0144  LITC  0000  0000
                        0145  LFU         6231
                        0112  LITC  0032  0150
                        0113  BFW         4231
                         EXIT: END;                                                             02020000 T  0025:2
                        0146  XIT         0435
                                                                                                        SIZE= 0026 WORDS
                 SAVE PROCEDURE DISKIO(A,C); VALUE A;                                           02030000 T  0000:0
                                                                             START OF SAVE SEGMENT; BASE ADDRESS = 00183
PRT(250) = DISKIO
                         ARRAY C[*];                                                            02040000 T  0000:0
                         REAL A;                                                                02050000 T  0000:0
                         BEGIN BOOLEAN R;                                                       02060000 T  0000:0
STACK(F+1) = R
                              C := C INX NOT 0;                                                 02070000 T  0000:0
                        0000  LITC  0000  0000
                        0001  LITC  1601  7004
                        0002  LOD         2021
                        0003  LITC  0000  0000
                        0004  LNG         0115
                        0005  LITC  0000  0000
                        0005  INX         0141
                        0006  LITC  0000  0000
                        0006  LITC  1601  7004
                        0007  STD         0421
                              IF R:=A.[1:1] THEN A := ABS (A);                                  02080000 T  0002:0
                        0010  OPDC  1602  7012
                        0011              0155
                        0012              1445
                        0013  LITC  1001  4004
                        0014  SND         1021
                        0017  OPDC  1602  7012
                        0020  SSP         4431
                        0021  LITC  1602  7010
                        0022  STD         0421
                        0015  LITC  0004  0020
                        0016  BFC         0231
                              STREAM(A,X←FLAG(C));                                              02090000 T  0004:3
                        0023  NOP         0055
                        0024  OPDC  1602  7012
                        0025  LITC  1601  7004
                        0026  LOD         2021
                        0027              4015
                        0023  MKS         0441
                        0030              4441
                                   BEGIN SI ← LOC A; DS ← 8 DEC END;                            02100000 T  0006:1
                        0031  SES   0002  0222
                        0032  OCV   0010  1066
                        0033  LITC  0020  0100
                              IF R THEN IO(C,@140360140100000&NUMWDS[8:38:10]                   02110000 T  0007:0
                        0034  OPDC  1001  4006
                        0037  MKS         0441
                        0040  LITC  1601  7004
                        0041  LOD         2021
                        0042  DESC  1777  7777
                        0043  OPDC  0233  1156
                                     &((NUMWDS+29)DIV 30)[27:42:6]) ELSE                        02120000 T  0009:0
                        0044              6255
                        0045              1261
                        0046              1265
                        0047  OPDC  0233  1156
                        0050  LITC  0035  0164
                        0051  ADD         0101
                        0052  LITC  0000  0000
                        0052  LITC  0036  0170
                        0053  IDV         3001
                        0054  LITC  0000  0000
                        0054              7055
                        0055              4361
                        0056              0665
                        0057  OPDC  0247  1236
                              BEGIN                                                             02130000 T  0012:0
                        0062  NOP         0055
                        0063  NOP         0055
                        0042  OPDC  1405  6026
0064  0140360140100000                                                                          02130000 T  0012:0
                        0035  LITC  0007  0034
                        0036  LFC         2231
                                   IO(C,@140360100100000);                                      02140000 T  0014:0
                        0070  MKS         0441
                        0071  LITC  1601  7004
                        0072  LOD         2021
                        0073  DESC  1777  7777
                        0074  OPDC  0247  1236
                                   M[READBACK] ← M[C];                                          02150000 T  0015:1
                        0075  OPDC  0203  1016
                        0076  DESC  0200  1003
                        0077  INX         0141
                        0100  LITC  1601  7004
                        0101  LOD         2021
                        0102  DESC  0200  1003
                        0103  INX         0141
                        0104  LOD         2021
                        0105  XCH         1025
                        0106  STD         0421
                                   IO(READBACK,@140360140100000);                               02160000 T  0017:3
                        0107  MKS         0441
                        0110  OPDC  0203  1016
                        0111  DESC  1777  7777
                        0112  OPDC  0247  1236
                                   STREAM(READBACK:X←FLAG(C));                                  02170000 T  0018:3
                        0113  NOP         0055
                        0114  OPDC  0203  1016
                        0115  MKS         0441
                        0116  LITC  1601  7004
                        0117  LOD         2021
                        0120              4015
                        0121              4441
                                   BEGIN SI ← READBACK; SI ← SI+8; DI ← DI+8;                   02180000 T  0020:2
                        0122  RSA   0003  0353
                        0123  SFS   0010  1031
                        0124  SFD   0010  1016
                                        5(IF 48 SC ≠ DC THEN TALLY ← 1);                        02190000 T  0021:1
                        0125  BNS   0005  0552
                        0126  CNE   0060  6061
                        0127  JFC   0000  0045
                        0130  SEC   0001  0142
                        0127  JFC   0001  0145
                        0131  ENS   0000  0051
                                        READBACK ← TALLY;                                       02200000 T  0022:2
                        0132  STC   0003  0341
                                   END;                                                         02210000 T  0022:3
                        0133  LITC  0020  0100
                                   IF P THEN IOERR(@140000000000000);                           02220000 T  0023:0
                        0136  MKS         0441
                        0137  DESC  1777  7777
                        0140  OPDC  0245  1226
                        0134  LITC  0003  0014
                        0135  BFC         0231
                              END;                                                              02230000 T  0024:1
                        0060  LITC  0057  0274
                        0061  BFW         4231
                         END;                                                                   02240000 T  0024:1
                        0141  XIT         0435
                        0142  NOP         0055
                        0143  NOP         0055
                        0073  OPDC  1413  6056
0144  0140360100100000                                                                          02240000 T  0024:1
                        0111  OPDC  1410  6042
0150  0140360140100000                                                                          02240000 T  0024:1
                        0137  OPDC  1404  6022
0154  0140000000000000                                                                          02240000 T  0024:1
                                                                                                        SIZE= 0028 WORDS
                 SAVE REAL PROCEDURE SCANWORD(TABLE); ARRAY TABLE[*];                           02250000 T  0000:0
                                                                             START OF SAVE SEGMENT; BASE ADDRESS = 00211
PRT(251) = SCANWORD
                         BEGIN REAL T;                                                          02260000 T  0000:0
STACK(F+2) = T
                              T:= IF (M[CARD] EQV 0)= NOT 0 THEN 12 ELSE ISOLATE(CARD);         02270000 T  0000:0
                        0000  LITC  0000  0000
                        0001  LITC  0000  0000
                        0002  OPDC  0210  1042
                        0003  DESC  0200  1003
                        0004  INX         0141
                        0005  LOD         2021
                        0006  LITC  0000  0000
                        0007  LQV         1015
                        0010  LITC  0000  0000
                        0010  LITC  0000  0000
                        0011  LNG         0115
                        0012  LITC  0000  0000
                        0012  EQL         4425
                        0013  LITC  0000  0000
                        0015  LITC  0014  0060
                        0013  LITC  0001  0004
                        0014  LFC         2231
                        0020  LITC  0000  0000
                        0021  MKS         0441
                        0022  LITC  0000  0000
                        0023  DESC  0210  1043
                        0024  OPDC  0242  1212
                        0016  LITC  0005  0024
                        0017  BFW         4231
                        0025              0001
                        0025  LITC  1002  4010
                        0026  STD         0421
                              SCANWORD ← IF T = 12 THEN 12 ELSE SEARCH(CARD,TABLE,T);           02280000 T  0005:3
                        0027  OPDC  1002  4012
                        0030  LITC  0014  0060
                        0031  EQL         4425
                        0032  LITC  0000  0000
                        0034  LITC  0014  0060
                        0032  LITC  0003  0014
                        0033  BFC         0231
                        0037  LITC  0000  0000
                        0040  MKS         0441
                        0041  OPDC  0210  1042
                        0042  LITC  1601  7004
                        0043  LOD         2021
                        0044  OPDC  1002  4012
                        0045  OPDC  0241  1206
                        0035  LITC  0007  0034
                        0036  BFW         4231
                        0046              0001
                        0046  LITC  1001  4004
                        0047  STD         0421
                         END;                                                                   02290000 T  0010:0
                        0050  OPDC  1001  4006
                        0051  RTN         0235
                                                                                                        SIZE= 0011 WORDS
                 SAVE REAL PROCEDURE SCANUMBER;                                                 02300000 T  0000:0
                                                                             START OF SAVE SEGMENT; BASE ADDRESS = 00222
PRT(252) = SCANUMBER
                         BEGIN REAL T;                                                          02310000 T  0000:0
STACK(F+2) = T
                              T ← ISOLATE(CARD);                                                02320000 T  0000:0
                        0000  LITC  0000  0000
                        0001  LITC  0000  0000
                        0002  LITC  0000  0000
                        0003  MKS         0441
                        0004  LITC  0000  0000
                        0005  DESC  0210  1043
                        0006  OPDC  0242  1212
                        0007  LITC  1002  4010
                        0010  STD         0421
                              STREAM(R←0:T,CARD);                                               02330000 T  0002:1
                        0011  NOP         0055
                        0012  LITC  0000  0000
                        0013  MKS         0441
                        0014  OPDC  1002  4012
                        0015  OPDC  0210  1042
                        0016              4441
                                   BEGIN DI←DI-T; CARD ← DI;                                    02340000 T  0003:3
                        0017  CRF   0002  0243
                        0020  SRD   0000  0017
                        0021  SDA   0001  0114
                                        SI ← CARD;                                              02350000 T  0004:2
                        0022  RSA   0001  0153
                                        DI ← LOC R;                                             02360000 T  0004:3
                        0023  SED   0004  0406
                                        DS ← T OCT;                                             02370000 T  0005:0
                        0024  CRF   0002  0243
                        0025  ICV   0000  0067
                                   END;                                                         02380000 T  0005:2
                        0026  LITC  0020  0100
                              SCANUMBER ← P;                                                    02390000 T  0005:3
                        0027  LITC  1001  4004
                        0030  STD         0421
                         END;                                                                   02400000 T  0006:1
                        0031  OPDC  1001  4006
                        0032  RTN         0235
                                                                                                        SIZE= 0007 WORDS
                %                                                                               02410000 T  0000:0
                SAVE INTEGER PROCEDURE PACKER;                                                  02420000 T  0000:0
                                                                             START OF SAVE SEGMENT; BASE ADDRESS = 00229
PRT(253) = PACKER
                     BEGIN;                                                                     02430000 T  0000:0
                        0000  LITC  0000  0000
                          STREAM (A:=[BUFFER[9]],B:=[PACKER]);                                  02440000 T  0000:1
                        0001  NOP         0055
                        0002  LITC  0011  0044
                        0003  DESC  0216  1073
                        0004  DESC  1001  4007
                        0001  MKS         0441
                        0005              4441
                           BEGIN SI := A; SI := SI + 4;                                         02450000 T  0001:2
                        0006  RSA   0002  0253
                        0007  SFS   0004  0431
                                 DI := B; DI := DI + 6;                                         02460000 T  0002:0
                        0010  RDA   0001  0104
                        0011  SFD   0006  0616
                               4(SKIP 3 SB; 3(IF SB THEN DS:=SET ELSE SKIP DB;SKIP SB));        02470000 T  0002:2
                        0012  BNS   0004  0452
                        0013  BSS   0003  0303
                        0014  BNS   0003  0352
                        0015  BIT   0001  0137
                        0016  JFC   0000  0045
                        0017  BIT   0001  0164
                        0020  JFW   0000  0047
                        0016  JFC   0002  0245
                        0021  BSD   0001  0102
                        0020  JFW   0001  0147
                        0022  BSS   0001  0103
                        0023  ENS   0000  0051
                        0024  ENS   0000  0051
                           END;                                                                 02480000 T  0005:1
                        0025  LITC  0020  0100
                     END;                                                                       02490000 T  0005:2
                        0026  OPDC  1001  4006
                        0027  RTN         0235
                                                                                                        SIZE= 0006 WORDS
                %                                                                               02500000 T  0000:0
                SAVE PROCEDURE LOADERS;                                                         02510000 T  0000:0
                                                                             START OF SAVE SEGMENT; BASE ADDRESS = 00235
PRT(254) = LOADERS
                         BEGIN          LABEL TOPPER;                                           02520000 T  0000:0
                              IF LOADED THEN                                                    02530000 T  0000:0
                        0000  OPDC  0224  1122
                              BEGIN IO([MESSAGE[9]]INX 0,@740000000000000);                     02540000 T  0000:1
                        0003  MKS         0441
                        0004  LITC  0011  0044
                        0005  DESC  0237  1177
                        0006  LITC  0000  0000
                        0007  INX         0141
                        0010  LITC  0000  0000
                        0010  DESC  1777  7777
                        0011  OPDC  0247  1236
                                    DO UNTIL FALSE;                                             02550000 T  0002:2
                        0012  LITC  0000  0000
                        0013  LITC  0003  0014
                        0014  BBC         0131
                              END;                                                              02560000 T  0003:1
                        0001  LITC  0012  0050
                        0002  BFC         0231
                     TOPPER:   STREAM(B:=[BUFFER[1]],A:=BUFFER[9].[6:9],                        02570000 T  0003:1
                        0015  NOP         0055
                        0016  LITC  0001  0004
                        0017  DESC  0216  1073
                        0020  LITC  0011  0044
                        0021  OPDC  0216  1072
                        0022              1055
                        0023              2345
                                    D←PACKER INX BUFFER);                                       02580000 T  0005:0
                        0024  MKS         0441
                        0025  OPDC  0253  1256
                        0026  LITC  0216  1070
                        0027  LOD         2021
                        0030  INX         0141
                        0031  LITC  0000  0000
                        0015  MKS         0441
                        0031              4441
                                   BEGIN  SI ←B; DS ← A WDS; END;                               02590000 T  0006:2
                        0032  RSA   0003  0353
                        0033  CRF   0002  0243
                        0034  TRW   0000  0005
                        0035  LITC  0020  0100
                              IO(BUFFER INX 0,@240120040000000);                                02600000 T  0007:2
                        0036  MKS         0441
                        0037  LITC  0216  1070
                        0040  LOD         2021
                        0041  LITC  0000  0000
                        0042  INX         0141
                        0043  LITC  0000  0000
                        0043  DESC  1777  7777
                        0044  OPDC  0247  1236
                              IF BUFFER[0].[4:44]=0 THEN GO TO TOPPER;                          02610000 T  0009:1
                        0045  LITC  0000  0000
                        0046  OPDC  0216  1072
                        0047  LITC  0000  0000
                        0050  XCH         1025
                        0051              0455
                        0052              0461
                        0053              5465
                        0054  LITC  0000  0000
                        0055  EQL         4425
                        0056  LITC  0000  0000
                        0055  NEQ         0425
                        0056  LITC  0043  0214
                        0057  BBC         0131
                              TEMMP := BUFFER;                                                  02620000 T  0012:0
                        0060  LITC  0216  1070
                        0061  LOD         2021
                        0062  LITC  0217  1074
                        0063  STD         0421
                              BUFFER := 111 INX BUFFER;                                         02630000 T  0013:0
                        0064  LITC  0157  0674
                        0065  LITC  0216  1070
                        0066  LOD         2021
                        0067  INX         0141
                        0070  LITC  0000  0000
                        0070  LITC  0216  1070
                        0071  STD         0421
                              BUFFER[0] := 1;                                                   02640000 T  0014:2
                        0072  LITC  0000  0000
                        0073  DESC  0216  1073
                        0074  LITC  0001  0004
                        0075  XCH         1025
                        0076  STD         0421
                              LOADED := TRUE;                                                   02650000 T  0015:3
                        0077  LITC  0001  0004
                        0100  LITC  0224  1120
                        0101  ISD         4121
                              IO(BUFFER INX 0,@140000007700000);                                02660000 T  0016:2
                        0102  MKS         0441
                        0103  LITC  0216  1070
                        0104  LOD         2021
                        0105  LITC  0000  0000
                        0106  INX         0141
                        0107  LITC  0000  0000
                        0107  DESC  1777  7777
                        0110  OPDC  0247  1236
                              BUFFER := TEMMP;                                                  02670000 T  0018:1
                        0111  LITC  0217  1074
                        0112  LOD         2021
                        0113  LITC  0216  1070
                        0114  STD         0421
                         END;                                                                   02680000 T  0019:1
                        0115  XIT         0435
                        0116  NOP         0055
                        0117  NOP         0055
                        0010  OPDC  1422  6112
0120  0740000000000000                                                                          02680000 T  0019:1
                        0043  OPDC  1415  6066
0124  0240120040000000                                                                          02680000 T  0019:1
                        0107  OPDC  1405  6026
0130  0140000007700000                                                                          02680000 T  0019:1
                                                                                                        SIZE= 0023 WORDS
                SAVE PROCEDURE REMOVER;                                                         02690000 T  0000:0
                                                                             START OF SAVE SEGMENT; BASE ADDRESS = 00258
PRT(255) = REMOVER
                    BEGIN                                                                       02700000 T  0000:0
                         STREAM(A:=[LABELS[I]],MONTHS);                                         02710000 T  0000:0
                        0000  NOP         0055
                        0001  OPDC  0206  1032
                        0002  DESC  0222  1113
                        0003  LITC  0234  1160
                        0004  LOD         2021
                        0000  MKS         0441
                        0005              4441
                         BEGIN SI:=A;SI:=SI+1;DS:=7 CHR;DS:=LIT"/";SI:=SI+1;                    02720000 T  0001:2
                        0006  RSA   0002  0253
                        0007  SFS   0001  0131
                        0010  TRS   0007  0777
                        0011  TRP   0001  0174
                        0012  CNE   0000  0061
                        0013  SFS   0001  0131
                              DS:=7 CHR;DS:=9 LIT" REMOVED←";                                   02730000 T  0003:0
                        0014  TRS   0007  0777
                        0015  TRP   0011  1174
                        0016  CEQ   0000  0060
                        0017  TNE   0051  5125
                        0020  JNS   0044  4446
                        0021  TNE   0065  6525
                        0022  BIT   0024  2437
                         END;                                                                   02740000 T  0004:3
                        0023  LITC  0020  0100
                         LABELS[I]:=@14;                                                        02750000 T  0005:0
                        0024  OPDC  0206  1032
                        0025  DESC  0222  1113
                        0026  LITC  0014  0060
                        0027  XCH         1025
                        0030  STD         0421
                         IO(MONTHS INX 0,@740000000000000);                                     02760000 T  0006:1
                        0031  MKS         0441
                        0032  LITC  0234  1160
                        0033  LOD         2021
                        0034  LITC  0000  0000
                        0035  INX         0141
                        0036  LITC  0000  0000
                        0036  DESC  1777  7777
                        0037  OPDC  0247  1236
                    END;                                                                        02770000 T  0008:0
                        0040  XIT         0435
                        0041  NOP         0055
                        0042  NOP         0055
                        0043  NOP         0055
                        0036  OPDC  1402  6012
0044  0740000000000000                                                                          02770000 T  0008:0
                                                                                                        SIZE= 0010 WORDS
                 SAVE REAL PROCEDURE EOM;                                                       02780000 T  0000:0
                                                                             START OF SAVE SEGMENT; BASE ADDRESS = 00268
                         BEGIN GO TO TIMER END;                                                 02790000 T  0000:0
                        0000  LITC  0000  0000
PRT(256) = TIMER
                        0001  OPDC  0256  1272
                        0002  BFW         4231
                        0003  OPDC  1001  4006
                        0004  RTN         0235
                                                                                                        SIZE= 0002 WORDS
                %***********************START HERE****************************                  02800000 T  0000:0
                    TART      :@20: QX ← 1; GO TO START;                                        02810000 T  0000:0
                        0100  LITC  0001  0004
                        0101  LITC  0225  1124
                        0102  ISD         4121
                        0103  LITC  0000  0000
                        0104  OPDC  0211  1046
                    TIMER     :@22:P(INI); GO TO TIMER; % TIME INTERVAL                         02820000 T  0017:1
                        0110              0211
                        0111  LITC  0000  0000
                        0112  LFU         6231
                              :@24:GO TO TIMER; % KEYBOARD REQUEST                              02830000 T  0018:3
                        0120  LITC  0002  0010
                        0121  LBU         6131
                              :@25:GO TO TIMER; % LPA FINISHED                                  02840000 T  0020:2
                        0124  LITC  0003  0014
                        0125  LBU         6131
                              :@26:GO TO TIMER; % LPB FINISHED                                  02850000 T  0021:2
                        0130  LITC  0004  0020
                        0131  LBU         6131
                              :@27:P(@14,LOD,RTN); % I/O #1 FINISHED                            02860000 T  0022:2
                        0134  LITC  0014  0060
                        0135  LOD         2021
                        0136  RTN         0235
                              :@30:P(@15,LOD,RTN); % I/O #2 FINISHED                            02870000 T  0023:3
                        0140  LITC  0015  0064
                        0141  LOD         2021
                        0142  RTN         0235
                              :@31:P(@16,LOD,RTN); % I/O #3 FINISHED                            02880000 T  0024:3
                        0144  LITC  0016  0070
                        0145  LOD         2021
                        0146  RTN         0235
                              :@32:P(@17,LOD,RTN); % I/O #4 FINISHED                            02890000 T  0025:3
                        0150  LITC  0017  0074
                        0151  LOD         2021
                        0152  RTN         0235
                              :@34:GO TO TIMER; % INQUIRY REQUEST                               02900000 T  0026:3
                        0160  LITC  0012  0050
                        0161  LBU         6131
                %**********************CODE STARTS HERE***************************              02910000 T  0028:2
                    START:*:  P(64,STS);                                                        02920000 T  0028:2
                        0103  LITC  0236  1170
                        0104  LFU         6231
                        1274  LITC  0100  0400
                        1275  LITC  0003  0014
                        1276              2141
                              DISKTOP ← -1;                                                     02930000 T  0175:3
                        1277  LITC  0001  0004
                        1300  CHS         1031
                        1301  LITC  0207  1034
                        1302  STD         0421
                              NUMWDS := 30;                                                     02940000 T  0176:3
                        1303  LITC  0036  0170
                        1304  LITC  0233  1154
                        1305  ISD         4121
                              CORE ← P(.EOM,LOD).[33:15]+3;                                     02950000 T  0177:2
                        1306  LITC  0246  1230
                        1307  LOD         2021
                        1310  LITC  0000  0000
                        1311  INX         0141
                        1312  LITC  0003  0014
                        1313  ADD         0101
                        1314  LITC  0000  0000
                        1314  LITC  0202  1010
                        1315  STD         0421
                              STREAM(CORE);                                                     02960000 T  0179:2
                        1316  NOP         0055
                        1317  OPDC  0202  1012
                        1316  MKS         0441
                        1320              4441
                                   BEGIN DS ← 8 LIT "0"; SI ← CORE;                             02970000 T  0180:1
                        1321  TRP   0010  1074
                        1322  EXC   0000  0000
                        1323  EXC   0000  0000
                        1324  EXC   0000  0000
                        1325  EXC   0000  0000
                        1326  RSA   0001  0153
                                        32(DS ← 32 WDS);                                        02980000 T  0181:3
                        1327  BNS   0040  4052
                        1330  TRW   0040  4005
                        1331  ENS   0000  0051
                                   END;                                                         02990000 T  0182:2
                        1332  LITC  0020  0100
                              SHAR := [M[CORE]]&31[8:38:10];                                    03000000 T  0182:3
                        1333  OPDC  0202  1012
                        1334  DESC  0200  1003
                        1335  INX         0141
                        1336  LITC  0037  0174
                        1337              6255
                        1340              1261
                        1341              1265
                        1342  LITC  0215  1064
                        1343  STD         0421
                              CORE := CORE +31;                                                 03010000 T  0185:0
                        1344  OPDC  0202  1012
                        1345  LITC  0037  0174
                        1346  ADD         0101
                        1347  LITC  0000  0000
                        1347  LITC  0202  1010
                        1350  STD         0421
                              LOADER ← CORE;                                                    03020000 T  0186:1
                        1351  OPDC  0202  1012
                        1352  LITC  0204  1020
                        1353  STD         0421
                              CORE ← CORE+30;                                                   03030000 T  0187:0
                        1354  OPDC  0202  1012
                        1355  LITC  0036  0170
                        1356  ADD         0101
                        1357  LITC  0000  0000
                        1357  LITC  0202  1010
                        1360  STD         0421
                              INFO ← [M[CORE]]&30[8:38:10];                                     03040000 T  0188:1
                        1361  OPDC  0202  1012
                        1362  DESC  0200  1003
                        1363  INX         0141
                        1364  LITC  0036  0170
                        1365              6255
                        1366              1261
                        1367              1265
                        1370  LITC  0214  1060
                        1371  STD         0421
                              CORE ← CORE+40;                                                   03050000 T  0190:2
                        1372  OPDC  0202  1012
                        1373  LITC  0050  0240
                        1374  ADD         0101
                        1375  LITC  0000  0000
                        1375  LITC  0202  1010
                        1376  STD         0421
                              FILEH ← [M[CORE]]&30[8:38:10];                                    03060000 T  0191:3
                        1377  OPDC  0202  1012
                        1400  DESC  0200  1003
                        1401  INX         0141
                        1402  LITC  0036  0170
                        1403              6255
                        1404              1261
                        1405              1265
                        1406  LITC  0221  1104
                        1407  STD         0421
                              CORE ← CORE+40;                                                   03070000 T  0194:0
                        1410  OPDC  0202  1012
                        1411  LITC  0050  0240
                        1412  ADD         0101
                        1413  LITC  0000  0000
                        1413  LITC  0202  1010
                        1414  STD         0421
                              FILEX := [M[CORE]]&450[8:38:10];                                  03080000 T  0195:1
                        1415  OPDC  0202  1012
                        1416  DESC  0200  1003
                        1417  INX         0141
                        1420  LITC  0702  3410
                        1421              6255
                        1422              1261
                        1423              1265
                        1424  LITC  0220  1100
                        1425  STD         0421
                              CORE := CORE + 450;                                               03090000 T  0197:2
                        1426  OPDC  0202  1012
                        1427  LITC  0702  3410
                        1430  ADD         0101
                        1431  LITC  0000  0000
                        1431  LITC  0202  1010
                        1432  STD         0421
                              LABELS ← [M[CORE]]&30[8:38:10];                                   03100000 T  0198:3
                        1433  OPDC  0202  1012
                        1434  DESC  0200  1003
                        1435  INX         0141
                        1436  LITC  0036  0170
                        1437              6255
                        1440              1261
                        1441              1265
                        1442  LITC  0222  1110
                        1443  STD         0421
                              CORE ← CORE+40;                                                   03110000 T  0201:0
                        1444  OPDC  0202  1012
                        1445  LITC  0050  0240
                        1446  ADD         0101
                        1447  LITC  0000  0000
                        1447  LITC  0202  1010
                        1450  STD         0421
                              READBACK ← CORE;                                                  03120000 T  0202:1
                        1451  OPDC  0202  1012
                        1452  LITC  0203  1014
                        1453  STD         0421
                              CORE ← CORE+40;                                                   03130000 T  0203:0
                        1454  OPDC  0202  1012
                        1455  LITC  0050  0240
                        1456  ADD         0101
                        1457  LITC  0000  0000
                        1457  LITC  0202  1010
                        1460  STD         0421
                $INCLUDE 03200050,IF COOL;                                                      03140000 T  0204:1
                              I ← 0;                                                            03210000 T  0204:1
                        1461  LITC  0000  0000
                        1462  LITC  0206  1030
                        1463  STD         0421
                              P(ZP1);                                                           03220000 T  0205:0
                        1464  ZP1         2411
                              BUFFER := [M[CORE]]&10[8:38:10];                                  03230000 T  0205:1
                        1465  OPDC  0202  1012
                        1466  DESC  0200  1003
                        1467  INX         0141
                        1470  LITC  0012  0050
                        1471              6255
                        1472              1261
                        1473              1265
                        1474  LITC  0216  1070
                        1475  STD         0421
                %                                                                               03240000 T  0207:2
                READCARD:     CARD ← CORE;                        %READ CARD                    03250000 T  0207:2
                        1476  OPDC  0202  1012
                        1477  LITC  0210  1040
                        1500  STD         0421
                              IO(CARD,@240000040000000);                                        03260000 T  0208:1
                        1501  MKS         0441
                        1502  OPDC  0210  1042
                        1503  DESC  1777  7777
                        1504  NOP         0055
                        1505  OPDC  0247  1236
                HANDLE:       STREAM (C:=CARD+10); DS := 2 LIT "%-";                            03270000 T  0209:2
                        1506  NOP         0055
                        1507  OPDC  0210  1042
                        1510  LITC  0012  0050
                        1511  ADD         0101
                        1512  LITC  0000  0000
                        1506  MKS         0441
                        1512              4441
                        1513  TRP   0002  0274
                        1514  SCA   0073  7354
                        1515  LITC  0020  0100
                              GO TYPESWITCH [TYPE:=SCANWORD(FIRST)];                            03280000 T  0211:2
                        1516  MKS         0441
                        1517  LITC  0235  1164
                        1520  LOD         2021
                        1521  OPDC  0251  1246
                        1522  LITC  0211  1044
                        1523  SND         1021
                        1524  DUP         2025
                        1525  ADD         0101
                        1526  BFW         4231
                        1527  LITC  0000  0000
                        1530  OPDC  0211  1046
                        1531  LITC  0000  0000
                        1532  OPDC  0211  1046
                        1533  LITC  0000  0000
                        1534  OPDC  0211  1046
                        1535  LITC  0000  0000
                        1536  OPDC  0211  1046
                        1537  LITC  0000  0000
                        1540  OPDC  0211  1046
                        1541  LITC  0000  0000
                        1542  OPDC  0211  1046
                        1543  LITC  0000  0000
                        1544  OPDC  0211  1046
                        1545  DESC  0330  1543
                        1546  OPDC  0211  1046
                        1547  LITC  0000  0000
                        1550  OPDC  0211  1046
                        1551  LITC  0000  0000
                        1552  OPDC  0211  1046
                        1553  LITC  0000  0000
                        1554  OPDC  0211  1046
                        1555  LITC  0000  0000
                        1556  OPDC  0211  1046
                        1557  LITC  0000  0000
                        1560  OPDC  0211  1046
                %                                                                               03290000 T  0220:1
                ERROR::       IO([MESSAGE[2]] INX 0,@740000000000000);                          03300000 T  0220:1
                        1561  NOP         0055
                        1562  NOP         0055
                        1563  NOP         0055
                        1527  LITC  0007  0034
                        1530  LFU         6231
                        1564  MKS         0441
                        1565  LITC  0002  0010
                        1566  DESC  0237  1177
                        1567  LITC  0000  0000
                        1570  INX         0141
                        1571  LITC  0000  0000
                        1571  DESC  1777  7777
                        1572  NOP         0055
                        1573  OPDC  0247  1236
                              DO UNTIL P(RRR).[24:1] = 0;                                       03310000 T  0223:0
                        1574              2431
                        1575              4055
                        1576              1545
                        1577  LITC  0000  0000
                        1600  EQL         4425
                        1601  LITC  0000  0000
                        1601  LITC  0001  0004
                        1602  LBC         2131
                              DO UNTIL P(RRR).[24:1];                                           03320000 T  0224:3
                        1603              2431
                        1604              4055
                        1605              1545
                        1606  LITC  0005  0024
                        1607  BBC         0131
                              P(64,STS);                                                        03330000 T  0226:0
                        1610  LITC  0100  0400
                        1611  LITC  0003  0014
                        1612              2141
                              GO TO READNEXT;                                                   03340000 T  0226:3
                        1613  LITC  0000  0000
                        1614  OPDC  0211  1046
                        1615  NOP         0055
                        1616  NOP         0055
                        1617  NOP         0055
                        1503  OPDC  0344  1622
1620  0240000040000000                                                                          03340000 T  0226:3
                        1571  OPDC  0345  1626
1624  0740000000000000                                                                          03340000 T  0226:3
                %                                                                               03350000 T  0230:0
                XLOADED:      LOADERS; %LOAD LOADER DECK                                        03360000 T  0230:0
                        1557  LITC  0012  0050
                        1560  LFU         6231
                        1630  MKS         0441
                        1631  OPDC  0254  1262
                              CARD := CORE;                                                     03370000 T  0230:2
                        1632  OPDC  0202  1012
                        1633  LITC  0210  1040
                        1634  STD         0421
                              GO TO HANDLE;                                                     03380000 T  0231:1
                        1635  LITC  0131  0544
                        1636  BBW         4131
                %                                                                               03390000 T  0231:3
                SYSTEMS:      SPECIAL ("=");                                                    03400000 T  0231:3
                        1555  LITC  0060  0300
                        1556  BFW         4231
                        1637  MKS         0441
                        1640  LITC  0075  0364
                        1641  OPDC  0243  1216
                              SHAR[0] := SCANUMBER ;                                            03410000 T  0232:2
                        1642  LITC  0000  0000
                        1643  DESC  0215  1067
                        1644  MKS         0441
                        1645  OPDC  0252  1252
                        1646  XCH         1025
                        1647  STD         0421
                              IF SHAR[0] GTR 4 OR  SHAR[0] LSS 1 THEN                           03420000 T  0234:0
                        1650  LITC  0000  0000
                        1651  OPDC  0215  1066
                        1652  LITC  0004  0020
                        1653  GTR         0225
                        1654  LITC  0000  0000
                        1654  LITC  0000  0000
                        1655  OPDC  0215  1066
                        1656  LITC  0001  0004
                        1657  LSS         4225
                        1660  LITC  0000  0000
                        1660  LOR         0215
                        1661  LITC  0000  0000
                              BEGIN SHAR[0] := 1;                                               03430000 T  0236:1
                        1663  LITC  0000  0000
                        1664  DESC  0215  1067
                        1665  LITC  0001  0004
                        1666  XCH         1025
                        1667  STD         0421
                                    GO TO ERROR;                                                03440000 T  0238:0
                        1670  LITC  0021  0104
                        1671  LBU         6131
                              END;                                                              03450000 T  0238:2
                        1661  LITC  0007  0034
                        1662  BFC         0231
                              GO TO READCARD;                                                   03460000 T  0238:2
                        1672  LITC  0176  0770
                        1673  BBW         4131
                %                                                                               03470000 T  0239:0
                DIRECTORYTOP: DISKTOP ← SCANUMBER;                                              03480000 T  0239:0
                        1553  LITC  0024  0120
                        1554  LFU         6231
                        1674  MKS         0441
                        1675  OPDC  0252  1252
                        1676  LITC  0207  1034
                        1677  STD         0421
                              J ← DISKTOP+19;                                                   03490000 T  0240:0
                        1700  OPDC  0207  1036
                        1701  LITC  0023  0114
                        1702  ADD         0101
                        1703  LITC  0000  0000
                        1703  LITC  0205  1024
                        1704  STD         0421
                $ INCLUDE 03510001, IF COOL;                                                    03500000 T  0241:1
                              GO TO READCARD;                                                   03520000 T  0241:1
                        1705  LITC  0211  1044
                        1706  BBW         4131
                %                                                                               03530000 T  0241:3
                DIRECT:       INFO[4] ← SHAR[4]←SCANUMBER;                                      03540000 T  0241:3
                        1551  LITC  0134  0560
                        1552  BFW         4231
                        1707  LITC  0004  0020
                        1710  DESC  0214  1063
                        1711  LITC  0004  0020
                        1712  DESC  0215  1067
                        1713  MKS         0441
                        1714  OPDC  0252  1252
                        1715  XCH         1025
                        1716  SND         1021
                        1717  XCH         1025
                        1720  STD         0421
                              GO TO READCARD;                                                   03550000 T  0244:1
                        1721  LITC  0225  1124
                        1722  BBW         4131
                %                                                                               03560000 T  0244:3
                FENCE:        SPECIAL("=");                                                     03570000 T  0244:3
                        1533  LITC  0166  0730
                        1534  BFW         4231
                        1723  MKS         0441
                        1724  LITC  0075  0364
                        1725  OPDC  0243  1216
                              INFO[19]←@100000-(P(DUP)-SCANUMBER) DIV 1024×1024;                03580000 T  0245:2
                        1726  LITC  0023  0114
                        1727  DESC  0214  1063
                        1730  DESC  1777  7777
                        1731  NOP         0055
                        1732  DUP         2025
                        1733  MKS         0441
                        1734  OPDC  0252  1252
                        1735  SUB         0301
                        1736  LITC  0000  0000
                        1736  DESC  1777  7777
                        1737  NOP         0055
                        1740  IDV         3001
                        1741  LITC  0000  0000
                        1741  OPDC  0367  1736
                        1742  NOP         0055
                        1743  MUL         0401
                        1744  LITC  0000  0000
                        1744  SUB         0301
                        1745  LITC  0000  0000
                        1745  XCH         1025
                        1746  STD         0421
                              IF INFO[19]<@20000 THEN INFO[19]←@20000 ELSE                      03590000 T  0249:3
                        1747  LITC  0023  0114
                        1750  OPDC  0214  1062
                        1751  DESC  1777  7777
                        1752  NOP         0055
                        1753  LSS         4225
                        1754  LITC  0000  0000
                        1756  LITC  0023  0114
                        1757  DESC  0214  1063
                        1760              1751
                        1761  NOP         0055
                        1762  XCH         1025
                        1763  STD         0421
                              IF INFO[19]>@70000 THEN INFO[19]←@70000;                          03600000 T  0253:0
                        1766  NOP         0055
                        1767  NOP         0055
                        1730  OPDC  0376  1772
1770  0000000000100000                                                                          03600000 T  0253:0
                        1741  OPDC  0377  1776
                        1736  OPDC  0377  1776
1774  0000000000002000                                                                          03600000 T  0253:0
                        1760  OPDC  0400  2002
                        1751  OPDC  0400  2002
2000  0000000000020000                                                                          03600000 T  0253:0
                        1754  LITC  0006  0030
                        1755  LFC         2231
                        2004  LITC  0023  0114
                        2005  OPDC  0214  1062
                        2006  DESC  1777  7777
                        2007  NOP         0055
                        2010  GTR         0225
                        2011  LITC  0000  0000
                        2013  LITC  0023  0114
                        2014  DESC  0214  1063
                        2015  OPDC  0401  2006
                        2016  NOP         0055
                        2017  XCH         1025
                        2020  STD         0421
                        2011  LITC  0006  0030
                        2012  BFC         0231
                        1764  LITC  0033  0154
                        1765  BFW         4231
                              GO TO READCARD;                                                   03610000 T  0260:1
                        2021  LITC  0325  1524
                        2022  BBW         4131
                        2023  NOP         0055
                        2015  OPDC  0405  2026
                        2006  OPDC  0405  2026
2024  0000000000070000                                                                          03610000 T  0260:1
                %                                                                               03620000 T  0262:0
                 ESU:         INFO[2] ← SCANUMBER;                                              03630000 T  0262:0
                        1537  LITC  0056  0270
                        1540  LFU         6231
                        2030  LITC  0002  0010
                        2031  DESC  0214  1063
                        2032  MKS         0441
                        2033  OPDC  0252  1252
                        2034  XCH         1025
                        2035  STD         0421
                              GO TO READNEXT;                                                   03640000 T  0263:2
                        2036              1615
                        2037  OPDC  0211  1046
                %                                                                               03650000 T  0264:0
                 DATE:        MN ← SCANUMBER;                                                   03660000 T  0264:0
                        1543  LITC  0057  0274
                        1544  LFU         6231
                        2040  MKS         0441
                        2041  OPDC  0252  1252
                        2042  LITC  0212  1050
                        2043  STD         0421
                              IF MN < 1 OR MN > 12 THEN GO TO ERROR;                            03670000 T  0265:0
                        2044  OPDC  0212  1052
                        2045  LITC  0001  0004
                        2046  LSS         4225
                        2047  LITC  0000  0000
                        2047  OPDC  0212  1052
                        2050  LITC  0014  0060
                        2051  GTR         0225
                        2052  LITC  0000  0000
                        2052  LOR         0215
                        2053  LITC  0000  0000
                        2053  LNG         0115
                        2054  LITC  0056  0270
                        2055  LBC         2131
                              SPECIAL("/");                                                     03680000 T  0267:2
                        2056  MKS         0441
                        2057  LITC  0061  0304
                        2060  OPDC  0243  1216
                              DY ← SCANUMBER;                                                   03690000 T  0268:1
                        2061  MKS         0441
                        2062  OPDC  0252  1252
                        2063  LITC  0223  1114
                        2064  ISD         4121
                              SPECIAL("/");                                                     03700000 T  0269:1
                        2065  MKS         0441
                        2066  LITC  0061  0304
                        2067  OPDC  0243  1216
                              YR ← SCANUMBER;                                                   03710000 T  0270:0
                        2070  MKS         0441
                        2071  OPDC  0252  1252
                        2072  LITC  0213  1054
                        2073  STD         0421
                              DY ← MONTHS[MN-1]+DY;                                             03720000 T  0271:0
                        2074  OPDC  0212  1052
                        2075  LITC  0001  0004
                        2076  SUB         0301
                        2077  LITC  0000  0000
                        2077  OPDC  0234  1162
                        2100  OPDC  0223  1116
                        2101  ADD         0101
                        2102  LITC  0000  0000
                        2102  LITC  0223  1114
                        2103  ISD         4121
                              IF YR MOD 4 = 0 AND (YR MOD 100 ≠ 0 OR YR MOD 400 = 0)            03730000 T  0273:0
                        2104  OPDC  0213  1056
                        2105  LITC  0004  0020
                        2106  RDV         7001
                        2107  LITC  0000  0000
                        2107  LITC  0000  0000
                        2110  EQL         4425
                        2111  LITC  0000  0000
                        2111  OPDC  0213  1056
                        2112  LITC  0144  0620
                        2113  RDV         7001
                        2114  LITC  0000  0000
                        2114  LITC  0000  0000
                        2115  NEQ         0425
                        2116  LITC  0000  0000
                        2116  OPDC  0213  1056
                        2117  LITC  0620  3100
                        2120  RDV         7001
                        2121  LITC  0000  0000
                        2121  LITC  0000  0000
                                   AND MN ≥ 3 THEN DY ← DY+1;                                   03740000 T  0276:2
                        2122  EQL         4425
                        2123  LITC  0000  0000
                        2123  LOR         0215
                        2124  LITC  0000  0000
                        2124  LND         0415
                        2125  LITC  0000  0000
                        2125  OPDC  0212  1052
                        2126  LITC  0003  0014
                        2127  GEQ         0125
                        2130  LITC  0000  0000
                        2130  LND         0415
                        2131  LITC  0000  0000
                        2133  OPDC  0223  1116
                        2134  LITC  0001  0004
                        2135  ADD         0101
                        2136  LITC  0000  0000
                        2136  LITC  0223  1114
                        2137  ISD         4121
                        2131  LITC  0002  0010
                        2132  LFC         2231
                              DY ← YR MOD 100 × 1000+DY;                                        03750000 T  0280:0
                        2140  OPDC  0213  1056
                        2141  LITC  0144  0620
                        2142  RDV         7001
                        2143  LITC  0000  0000
                        2143  LITC  1750  7640
                        2144  MUL         0401
                        2145  LITC  0000  0000
                        2145  OPDC  0223  1116
                        2146  ADD         0101
                        2147  LITC  0000  0000
                        2147  LITC  0223  1114
                        2150  ISD         4121
                              STREAM(D←[DY],I←[INFO[1]]);                                       03760000 T  0282:1
                        2151  NOP         0055
                        2152  DESC  0223  1117
                        2153  LITC  0001  0004
                        2154  DESC  0214  1063
                        2151  MKS         0441
                        2155              4441
                                   BEGIN SI ← D; DS ← 8 DEC END;                                03770000 T  0283:2
                        2156  RSA   0002  0253
                        2157  OCV   0010  1066
                        2160  LITC  0020  0100
                %                                                                               03780000 T  0284:1
                 READNEXT:    SPECIAL("%");                                                     03790000 T  0284:1
                        2036  LITC  0121  0504
                        2037  BFW         4231
                        1613  LITC  0344  1620
                        1614  BFW         4231
                        2161  MKS         0441
                        2162  LITC  0073  0354
                        2163  OPDC  0243  1216
                              GO TO READCARD;                                                   03800000 T  0285:0
                        2164  LITC  0470  2340
                        2165  BBW         4131
                %                                                                               03810000 T  0285:2
                 USE:         XY ← SCANWORD(OPTIONS);                                           03820000 T  0285:2
                        1545  LITC  0417  2074
                        1546  BFW         4231
                        1541  LITC  0423  2114
                        1542  BFW         4231
                        2166  MKS         0441
                        2167  LITC  0236  1170
                        2170  LOD         2021
                        2171  OPDC  0251  1246
                        2172  LITC  0226  1130
                        2173  ISD         4121
                              IF XY GTR 48 THEN XY := XY - 40;                                  03830000 T  0287:0
                        2174  OPDC  0226  1132
                        2175  LITC  0060  0300
                        2176  GTR         0225
                        2177  LITC  0000  0000
                        2201  OPDC  0226  1132
                        2202  LITC  0050  0240
                        2203  SUB         0301
                        2204  LITC  0000  0000
                        2204  LITC  0226  1130
                        2205  ISD         4121
                        2177  LITC  0005  0024
                        2200  BFC         0231
                              GO TO COMUSE;                                                     03840000 T  0289:2
                        2206  LITC  0000  0000
                        2207  OPDC  0211  1046
                %                                                                               03850000 T  0290:0
                 OPTN:        XY ← 48-SCANUMBER;                                                03860000 T  0290:0
                        1547  LITC  0110  0440
                        1550  LFU         6231
                        2210  LITC  0060  0300
                        2211  MKS         0441
                        2212  OPDC  0252  1252
                        2213  SUB         0301
                        2214  LITC  0000  0000
                        2214  LITC  0226  1130
                        2215  ISD         4121
                 COMUSE:      IF XY = 0 THEN GO TO ERROR;                                       03870000 T  0291:2
                        2206  LITC  0006  0030
                        2207  BFW         4231
                        2216  OPDC  0226  1132
                        2217  LITC  0000  0000
                        2220  EQL         4425
                        2221  LITC  0000  0000
                        2220  NEQ         0425
                        2221  LITC  0107  0434
                        2222  LBC         2131
                              T ← 1;                                                            03880000 T  0292:3
                        2223  LITC  0001  0004
                        2224  LITC  0230  1140
                        2225  ISD         4121
                              FOR K ← 2 STEP 1 UNTIL XY DO T ← 0&T[1:2:46];                     03890000 T  0293:2
                        2226  LITC  0002  0010
                        2231  NOP         0055
                        2232  NOP         0055
                        2233  NOP         0055
                        2234  LITC  0000  0000
                        2235  OPDC  0230  1142
                        2236              0255
                        2237              0161
                        2240              5665
                        2241  LITC  0230  1140
                        2242  ISD         4121
                        2243  OPDC  0231  1146
                        2244  LITC  0001  0004
                        2245  ADD         0101
                        2227  LITC  0015  0064
                        2230  BFW         4231
                        2246  LITC  0231  1144
                        2247  SND         1021
                        2250  OPDC  0226  1132
                        2251  LEQ         4125
                        2252  LITC  0000  0000
                        2251  GTR         0225
                        2252  LITC  0003  0014
                        2253  LBC         2131
                              INFO[0] ← INFO[0] OR T;                                           03900000 T  0299:0
                        2254  LITC  0000  0000
                        2255  DESC  0214  1063
                        2256  LITC  0000  0000
                        2257  OPDC  0214  1062
                        2260  OPDC  0230  1142
                        2261  LOR         0215
                        2262  LITC  0000  0000
                        2262  XCH         1025
                        2263  STD         0421
                              GO TO READNEXT;                                                   03910000 T  0301:0
                        2264  LITC  0105  0424
                        2265  BBW         4131
                %                                                                               03920000 T  0301:2
                FILE:                                                                           03930000 T  0301:2
                $INCLUDE 03950050,IF COOL;                                                      03940000 T  0301:2
                $OMIT    04370050,IF COOL;                                                      03960000 T  0301:2
                         FOR K ← 0 STEP 1 UNTIL 1 DO                                            03970000 T  0301:2
                        1531  LITC  0533  2554
                        1532  BFW         4231
                        2266  LITC  0000  0000
                        2271  NOP         0055
                        2272  NOP         0055
                        2273  NOP         0055
                              BEGIN T ← ISOLATE(CARD);                                          03980000 T  0303:0
                        2274  LITC  0000  0000
                        2275  MKS         0441
                        2276  LITC  0000  0000
                        2277  DESC  0210  1043
                        2300  OPDC  0242  1212
                        2301  LITC  0230  1140
                        2302  ISD         4121
                                   IF T > 7 THEN GO TO ERROR;                                   03990000 T  0304:3
                        2303  OPDC  0230  1142
                        2304  LITC  0007  0034
                        2305  GTR         0225
                        2306  LITC  0000  0000
                        2305  LEQ         4125
                        2306  LITC  0124  0520
                        2307  LBC         2131
                                   STREAM(CARD,T,D←[LABELS[28-I+K]]);                           04000000 T  0306:0
                        2310  NOP         0055
                        2311  OPDC  0210  1042
                        2312  OPDC  0230  1142
                        2313  LITC  0034  0160
                        2314  OPDC  0206  1032
                        2315  SUB         0301
                        2316  LITC  0000  0000
                        2316  OPDC  0231  1146
                        2317  ADD         0101
                        2320  LITC  0000  0000
                        2320  DESC  0222  1113
                        2310  MKS         0441
                        2321              4441
                                        BEGIN SI ← CARD; SI ← SI-T;                             04010000 T  0308:2
                        2322  RSA   0003  0353
                        2323  CRF   0002  0243
                        2324  SRS   0000  0030
                                             DS ← 8 LIT "0       ";                             04020000 T  0309:1
                        2325  TRP   0010  1074
                        2326  CEQ   0000  0060
                        2327  CEQ   0060  6060
                        2330  CEQ   0060  6060
                        2331  CEQ   0060  6060
                                             DI ← DI-7; DS ← T CHR;                             04030000 T  0310:2
                        2332  SRD   0007  0717
                        2333  CRF   0002  0243
                        2334  TRS   0000  0077
                                        END;                                                    04040000 T  0311:1
                        2335  LITC  0020  0100
                                   SPECIAL(IF K=0 THEN "/" ELSE ",");                           04050000 T  0311:2
                        2336  MKS         0441
                        2337  OPDC  0231  1146
                        2340  LITC  0000  0000
                        2341  EQL         4425
                        2342  LITC  0000  0000
                        2344  LITC  0061  0304
                        2342  LITC  0003  0014
                        2343  BFC         0231
                        2347  LITC  0072  0350
                        2345  LITC  0001  0004
                        2346  LFU         6231
                        2350              0001
                        2350  OPDC  0243  1216
                              END;                                                              04060000 T  0314:1
                        2351  OPDC  0231  1146
                        2352  LITC  0001  0004
                        2353  ADD         0101
                        2267  LITC  0015  0064
                        2270  LFU         6231
                        2354  LITC  0231  1144
                        2355  SND         1021
                        2356  LITC  0001  0004
                        2357  LEQ         4125
                        2360  LITC  0000  0000
                        2357  GTR         0225
                        2360  LITC  0015  0064
                        2361  LBC         2131
                                   IF DISKTOP < 0 THEN BEGIN                                    04070000 T  0316:2
                        2362  OPDC  0207  1036
                        2363  LITC  0000  0000
                        2364  LSS         4225
                        2365  LITC  0000  0000
                                   IO([MESSAGE[6]] INX 0,@740000000000000);                     04080000 T  0317:3
                        2367  MKS         0441
                        2370  LITC  0006  0030
                        2371  DESC  0237  1177
                        2372  LITC  0000  0000
                        2373  INX         0141
                        2374  LITC  0000  0000
                        2374  DESC  1777  7777
                        2375  NOP         0055
                        2376  OPDC  0247  1236
                                   GO TO ERROR; END;                                            04090000 T  0319:3
                        2377  LITC  0143  0614
                        2400  LBU         6131
                        2401  NOP         0055
                        2402  NOP         0055
                        2403  NOP         0055
                        2374  OPDC  0501  2406
2404  0740000000000000                                                                          04090000 T  0319:3
                        2365  LITC  0005  0024
                        2366  LFC         2231
                         FILEH[9]← SCANUMBER;                                                   04100000 T  0322:0
                        2410  LITC  0011  0044
                        2411  DESC  0221  1107
                        2412  MKS         0441
                        2413  OPDC  0252  1252
                        2414  XCH         1025
                        2415  STD         0421
                         SPECIAL("×");                                                          04110000 T  0323:2
                        2416  MKS         0441
                        2417  LITC  0040  0200
                        2420  OPDC  0243  1216
                         FILEH[8]← SCANUMBER;                                                   04120000 T  0324:1
                        2421  LITC  0010  0040
                        2422  DESC  0221  1107
                        2423  MKS         0441
                        2424  OPDC  0252  1252
                        2425  XCH         1025
                        2426  STD         0421
                         SPECIAL(",");                                                          04130000 T  0325:3
                        2427  MKS         0441
                        2430  LITC  0072  0350
                        2431  OPDC  0243  1216
                         FILEH[3]←-DY&DY[12:30:18]&SCANUMBER[2:38:10];                          04140000 T  0326:2
                        2432  LITC  0003  0014
                        2433  DESC  0221  1107
                        2434  OPDC  0223  1116
                        2435  OPDC  0223  1116
                        2436              5055
                        2437              2061
                        2440              2265
                        2441  MKS         0441
                        2442  OPDC  0252  1252
                        2443              6255
                        2444              0261
                        2445              1265
                        2446  CHS         1031
                        2447  XCH         1025
                        2450  STD         0421
                         FILEH[4]←0;                                                            04150000 T  0330:1
                        2451  LITC  0004  0020
                        2452  DESC  0221  1107
                        2453  LITC  0000  0000
                        2454  XCH         1025
                        2455  STD         0421
                         N ← FILEH[9];                                                          04160000 T  0331:2
                        2456  LITC  0011  0044
                        2457  OPDC  0221  1106
                        2460  LITC  0227  1134
                        2461  ISD         4121
                         SPECIAL("%");                                                          04170000 T  0332:2
                        2462  MKS         0441
                        2463  LITC  0073  0354
                        2464  OPDC  0243  1216
                         FOR K ← 1 STEP 1 UNTIL N DO                                            04180000 T  0333:1
                        2465  LITC  0001  0004
                              BEGIN CARD ← CORE;                                                04190000 T  0334:0
                        2470  OPDC  0202  1012
                        2471  LITC  0210  1040
                        2472  STD         0421
                                   IO(CARD,@240000040000000);                                   04200000 T  0334:3
                        2473  MKS         0441
                        2474  OPDC  0210  1042
                        2475  DESC  1777  7777
                        2476  NOP         0055
                        2477  OPDC  0247  1236
                                   IF SCANWORD(FIRST) ≠ 0 THEN GO TO ERROR;                     04210000 T  0336:0
                        2500  MKS         0441
                        2501  LITC  0235  1164
                        2502  LOD         2021
                        2503  OPDC  0251  1246
                        2504  LITC  0000  0000
                        2505  NEQ         0425
                        2506  LITC  0000  0000
                        2505  EQL         4425
                        2506  LITC  0164  0720
                        2507  LBC         2131
                                   CARD ← CORE;                                                 04220000 T  0338:0
                        2510  OPDC  0202  1012
                        2511  LITC  0210  1040
                        2512  STD         0421
                                   FILEH[9+K] ← SCANUMBER;                                      04230000 T  0338:3
                        2513  LITC  0011  0044
                        2514  OPDC  0231  1146
                        2515  ADD         0101
                        2516  LITC  0000  0000
                        2516  DESC  0221  1107
                        2517  MKS         0441
                        2520  OPDC  0252  1252
                        2521  XCH         1025
                        2522  STD         0421
                                   SPECIAL("%");                                                04240000 T  0340:3
                        2523  MKS         0441
                        2524  LITC  0073  0354
                        2525  OPDC  0243  1216
                              END;                                                              04250000 T  0341:2
                        2526  OPDC  0231  1146
                        2527  LITC  0001  0004
                        2530  ADD         0101
                        2466  LITC  0041  0204
                        2467  BFW         4231
                        2531  LITC  0231  1144
                        2532  SND         1021
                        2533  OPDC  0227  1136
                        2534  LEQ         4125
                        2535  LITC  0000  0000
                        2534  GTR         0225
                        2535  LITC  0011  0044
                        2536  LBC         2131
                         FOR K ← K STEP 1 UNTIL 20 DO                                           04260000 T  0343:3
                        2537  OPDC  0231  1146
                        2542  NOP         0055
                        2543  NOP         0055
                        2475  OPDC  0531  2546
2544  0240000040000000                                                                          04260000 T  0343:3
                              FILEH[9+K] ← 0;                                                   04270000 T  0346:0
                        2550  LITC  0011  0044
                        2551  OPDC  0231  1146
                        2552  ADD         0101
                        2553  LITC  0000  0000
                        2553  DESC  0221  1107
                        2554  LITC  0000  0000
                        2555  XCH         1025
                        2556  STD         0421
                        2557  OPDC  0231  1146
                        2560  LITC  0001  0004
                        2561  ADD         0101
                        2540  LITC  0020  0100
                        2541  BFW         4231
                        2562  LITC  0231  1144
                        2563  SND         1021
                        2564  LITC  0024  0120
                        2565  LEQ         4125
                        2566  LITC  0000  0000
                        2565  GTR         0225
                        2566  LITC  0003  0014
                        2567  LBC         2131
                              FILEH[0] ← "11";                                                  04280000 T  0350:0
                        2570  LITC  0000  0000
                        2571  DESC  0221  1107
                        2572  LITC  0101  0404
                        2573  XCH         1025
                        2574  STD         0421
                              FILEH[7] ← FILEH[8]×N-1;                                          04290000 T  0351:1
                        2575  LITC  0007  0034
                        2576  DESC  0221  1107
                        2577  LITC  0010  0040
                        2600  OPDC  0221  1106
                        2601  OPDC  0227  1136
                        2602  MUL         0401
                        2603  LITC  0000  0000
                        2603  LITC  0001  0004
                        2604  SUB         0301
                        2605  LITC  0000  0000
                        2605  XCH         1025
                        2606  STD         0421
                         I ← I+2;                                                               04300000 T  0353:3
                        2607  OPDC  0206  1032
                        2610  LITC  0002  0010
                        2611  ADD         0101
                        2612  LITC  0000  0000
                        2612  LITC  0206  1030
                        2613  STD         0421
                         DISKIO(J-(I DIV 2),FILEH);                                             04310000 T  0355:0
                        2614  MKS         0441
                        2615  OPDC  0205  1026
                        2616  OPDC  0206  1032
                        2617  LITC  0002  0010
                        2620  IDV         3001
                        2621  LITC  0000  0000
                        2621  SUB         0301
                        2622  LITC  0000  0000
                        2622  LITC  0221  1104
                        2623  LOD         2021
                        2624  OPDC  0250  1242
                         IF I = 30 THEN                                                         04320000 T  0357:1
                        2625  OPDC  0206  1032
                        2626  LITC  0036  0170
                        2627  EQL         4425
                        2630  LITC  0000  0000
                              BEGIN DISKIO(J,LABELS);                                           04330000 T  0358:0
                        2632  MKS         0441
                        2633  OPDC  0205  1026
                        2634  LITC  0222  1110
                        2635  LOD         2021
                        2636  OPDC  0250  1242
                                   J ← J+16;                                                    04340000 T  0359:3
                        2637  OPDC  0205  1026
                        2640  LITC  0020  0100
                        2641  ADD         0101
                        2642  LITC  0000  0000
                        2642  LITC  0205  1024
                        2643  STD         0421
                                   I ← 0                                                        04350000 T  0361:0
                              END;                                                              04360000 T  0361:0
                        2644  LITC  0000  0000
                        2645  LITC  0206  1030
                        2646  STD         0421
                        2630  LITC  0015  0064
                        2631  BFC         0231
                         GO TO READCARD;                                                        04370000 T  0361:3
                        2647  LITC  1153  4654
                        2650  BBW         4131
                 %::::::::::::::::::::::NO MORE CARDS:::::::::::::::::::::::::::::              04380000 T  0362:1
                STOP:         IF INFO[4] < 1500 THEN INFO[4]←1500;                              04390000 T  0362:1
                        1535  LITC  1112  4450
                        1536  BFW         4231
                        2651  LITC  0004  0020
                        2652  OPDC  0214  1062
                        2653  DESC  1777  7777
                        2654  NOP         0055
                        2655  LSS         4225
                        2656  LITC  0000  0000
                        2660  LITC  0004  0020
                        2661  DESC  0214  1063
                        2662  DESC  0552  2653
                        2663  NOP         0055
                        2664  XCH         1025
                        2665  STD         0421
                        2656  LITC  0006  0030
                        2657  BFC         0231
                              INFO[16]:=15;                                                     04395000 T  0365:2
                        2666  LITC  0020  0100
                        2667  DESC  0214  1063
                        2670  LITC  0017  0074
                        2671  XCH         1025
                        2672  STD         0421
                              IF DISKTOP < 0 THEN                                               04400000 T  0366:3
                        2673  OPDC  0207  1036
                        2674  LITC  0000  0000
                        2675  LSS         4225
                        2676  LITC  0000  0000
                                   BEGIN                                                        04410000 T  0367:2
                                   IO([MESSAGE[6]] INX 0,@740000000000000);                     04420000 T  0368:0
                        2700  MKS         0441
                        2701  LITC  0006  0030
                        2702  DESC  0237  1177
                        2703  LITC  0000  0000
                        2704  INX         0141
                        2705  LITC  0000  0000
                        2705  DESC  1777  7777
                        2706  NOP         0055
                        2707  OPDC  0247  1236
                                   GO TO ERROR;                                                 04430000 T  0370:0
                        2710  LITC  0225  1124
                        2711  LBU         6131
                        2712  NOP         0055
                        2713  NOP         0055
                        2662  OPDC  0563  2716
                        2653  OPDC  0563  2716
2714  0000000000002734                                                                          04430000 T  0370:0
                        2705  OPDC  0564  2722
2720  0740000000000000                                                                          04430000 T  0370:0
                                   END;                                                         04440000 T  0373:0
                        2676  LITC  0006  0030
                        2677  LFC         2231
                              SHAR[1] ← DISKTOP;                                                04450000 T  0373:0
                        2724  LITC  0001  0004
                        2725  DESC  0215  1067
                        2726  OPDC  0207  1036
                        2727  XCH         1025
                        2730  STD         0421
                              IF SHAR[0] GTR 4 OR SHAR[0] LSS 1 THEN SHAR[0] := 1;              04460000 T  0374:1
                        2731  LITC  0000  0000
                        2732  OPDC  0215  1066
                        2733  LITC  0004  0020
                        2734  GTR         0225
                        2735  LITC  0000  0000
                        2735  LITC  0000  0000
                        2736  OPDC  0215  1066
                        2737  LITC  0001  0004
                        2740  LSS         4225
                        2741  LITC  0000  0000
                        2741  LOR         0215
                        2742  LITC  0000  0000
                        2744  LITC  0000  0000
                        2745  DESC  0215  1067
                        2746  LITC  0001  0004
                        2747  XCH         1025
                        2750  STD         0421
                        2742  LITC  0005  0024
                        2743  BFC         0231
                              DISKIO(0,SHAR); %                                                 04470000 T  0378:1
                        2751  MKS         0441
                        2752  LITC  0000  0000
                        2753  LITC  0215  1064
                        2754  LOD         2021
                        2755  OPDC  0250  1242
                $OMIT    04510050,IF COOL;                                                      04480000 T  0379:2
                              LABELS[28-I] ← @114;                                              04490000 T  0379:2
                        2756  LITC  0034  0160
                        2757  OPDC  0206  1032
                        2760  SUB         0301
                        2761  LITC  0000  0000
                        2761  DESC  0222  1113
                        2762  LITC  0114  0460
                        2763  XCH         1025
                        2764  STD         0421
                              LABELS[29-I] ← 0;                                                 04500000 T  0381:1
                        2765  LITC  0035  0164
                        2766  OPDC  0206  1032
                        2767  SUB         0301
                        2770  LITC  0000  0000
                        2770  DESC  0222  1113
                        2771  LITC  0000  0000
                        2772  XCH         1025
                        2773  STD         0421
                              FOR I:=0 STEP 1 UNTIL(SHAR[0]-1)DO DISKIO(DISKTOP-I,INFO);        04510000 T  0383:0
                        2774  NOP         0055
                        2775  NOP         0055
                        2776  NOP         0055
                        2777  NOP         0055
                        3000  LITC  0000  0000
                        3003  OPDC  0206  1032
                        3004  LITC  0001  0004
                        3005  ADD         0101
                        3001  LITC  0003  0014
                        3002  BFW         4231
                        3006  LITC  0206  1030
                        3007  SND         1021
                        3010  LITC  0000  0000
                        3011  OPDC  0215  1066
                        3012  LITC  0001  0004
                        3013  SUB         0301
                        3014  LITC  0000  0000
                        3014  LEQ         4125
                        3015  LITC  0000  0000
                        3016  OPDC  0011  0046
                        3017  MKS         0441
                        3020  OPDC  0207  1036
                        3021  OPDC  0206  1032
                        3022  SUB         0301
                        3023  LITC  0000  0000
                        3023  LITC  0214  1060
                        3024  LOD         2021
                        3025  OPDC  0250  1242
                        3026  LITC  0025  0124
                        3027  BBW         4131
                        3015  LITC  0003  0014
                        3016  LFC         2231
                $INCLUDE 04530050,IF COOL;                                                      04520000 T  0390:0
                              N := 50 ;%START CLEAN ESPDISK                                     04540000 T  0390:0
                        3030  LITC  0062  0310
                        3031  LITC  0227  1134
                        3032  ISD         4121
                MRCLEAN:      IF N LSS (DISKTOP-SHAR[0]) THEN                                   04550000 T  0390:3
                        3033  OPDC  0227  1136
                        3034  OPDC  0207  1036
                        3035  LITC  0000  0000
                        3036  OPDC  0215  1066
                        3037  SUB         0301
                        3040  LITC  0000  0000
                        3040  LSS         4225
                        3041  LITC  0000  0000
                              BEGIN ;STREAM(B:=N,X:=FILEH);                                     04560000 T  0392:1
                        3043  NOP         0055
                        3044  OPDC  0227  1136
                        3045  LITC  0221  1104
                        3046  LOD         2021
                        3043  MKS         0441
                        3047              4441
                                          BEGIN SI:=LOC B;DS:=8 DEC;END;                        04570000 T  0394:0
                        3050  SES   0002  0222
                        3051  OCV   0010  1066
                        3052  LITC  0020  0100
                                     P(N);                                                      04580000 T  0394:3
                        3053  OPDC  0227  1136
                                     IF (N:=(DISKTOP-SHAR[0]-N))GEQ 63 THEN                     04590000 T  0395:0
                        3054  OPDC  0207  1036
                        3055  LITC  0000  0000
                        3056  OPDC  0215  1066
                        3057  SUB         0301
                        3060  LITC  0000  0000
                        3060  OPDC  0227  1136
                        3061  SUB         0301
                        3062  LITC  0000  0000
                        3062  LITC  0227  1134
                        3063  ISN         4221
                        3064  LITC  0077  0374
                        3065  GEQ         0125
                        3066  LITC  0000  0000
                                        IO(FILEH INX 0,@140000007700000)                        04600000 T  0397:2
                        3070  MKS         0441
                        3071  LITC  0221  1104
                        3072  LOD         2021
                        3073  LITC  0000  0000
                        3074  INX         0141
                        3075  LITC  0000  0000
                        3075  DESC  1777  7777
                        3076  NOP         0055
                                     ELSE                                                       04610000 T  0399:3
                        3077  OPDC  0247  1236
                                        IO(FILEH INX 0,@140000000000000&N[27:42:6]);            04620000 T  0400:0
                        3102  NOP         0055
                        3103  NOP         0055
                        3075  OPDC  0621  3106
3104  0140000007700000                                                          6]);            04620000 T  0400:0
                        3066  LITC  0005  0024
                        3067  LFC         2231
                        3110  MKS         0441
                        3111  LITC  0221  1104
                        3112  LOD         2021
                        3113  LITC  0000  0000
                        3114  INX         0141
                        3115  LITC  0000  0000
                        3115  DESC  1777  7777
                        3116  NOP         0055
                        3117  OPDC  0227  1136
                        3120              7055
                        3121              4361
                        3122              0665
                        3123  OPDC  0247  1236
                        3100  LITC  0005  0024
                        3101  LFU         6231
                                     N := P + 63;                                               04630000 T  0405:0
                        3124  LITC  0077  0374
                        3125  ADD         0101
                        3126  LITC  0000  0000
                        3126  LITC  0227  1134
                        3127  ISD         4121
                                     GO TO MRCLEAN;                                             04640000 T  0406:0
                        3130  LITC  0077  0374
                        3131  BBW         4131
                        3132  NOP         0055
                        3133  NOP         0055
                        3115  OPDC  0627  3136
3134  0140000000000000                                                                          04640000 T  0406:0
                              END;                                                              04650000 T  0408:0
                        3041  LITC  0020  0100
                        3042  LFC         2231
                              STREAM (B:=DISKTOP+1,X:=FILEH);                                   04660000 T  0408:0
                        3140  NOP         0055
                        3141  OPDC  0207  1036
                        3142  LITC  0001  0004
                        3143  ADD         0101
                        3144  LITC  0000  0000
                        3144  LITC  0221  1104
                        3145  LOD         2021
                        3140  MKS         0441
                        3146              4441
                                       BEGIN SI:=LOC B;DS:=8 DEC;END;                           04670000 T  0409:3
                        3147  SES   0002  0222
                        3150  OCV   0010  1066
                        3151  LITC  0020  0100
                              IO(FILEH INX 0,@141320000300000);                                 04680000 T  0410:2
                        3152  MKS         0441
                        3153  LITC  0221  1104
                        3154  LOD         2021
                        3155  LITC  0000  0000
                        3156  INX         0141
                        3157  LITC  0000  0000
                        3157  DESC  1777  7777
                        3160  NOP         0055
                        3161  OPDC  0247  1236
                $INCLUDE 05120050,IF COOL;                                                      04685000 T  0412:2
                         DISKIO(J,LABELS);                                                      05130000 T  0412:2
                        3162  MKS         0441
                        3163  OPDC  0205  1026
                        3164  LITC  0222  1110
                        3165  LOD         2021
                        3166  OPDC  0250  1242
                         FOR I ← 0 STEP 1 UNTIL 29 DO INFO[I] ← 0;                              05160000 T  0413:3
                        3167  LITC  0000  0000
                        3172  NOP         0055
                        3173  NOP         0055
                        3157  OPDC  0637  3176
3174  0141320000300000                                                                          05160000 T  0413:3
                        3200  OPDC  0206  1032
                        3201  DESC  0214  1063
                        3202  LITC  0000  0000
                        3203  XCH         1025
                        3204  STD         0421
                        3205  OPDC  0206  1032
                        3206  LITC  0001  0004
                        3207  ADD         0101
                        3170  LITC  0004  0020
                        3171  LFU         6231
                        3210  LITC  0206  1030
                        3211  SND         1021
                        3212  LITC  0035  0164
                        3213  LEQ         4125
                        3214  LITC  0000  0000
                        3213  GTR         0225
                        3214  LITC  0003  0014
                        3215  LBC         2131
                         IO([MESSAGE[0]] INX 0,@740000000000000);                               05170000 T  0419:2
                        3216  MKS         0441
                        3217  LITC  0000  0000
                        3220  DESC  0237  1177
                        3221  LITC  0000  0000
                        3222  INX         0141
                        3223  LITC  0000  0000
                        3223  DESC  1777  7777
                        3224  NOP         0055
                        3225  OPDC  0247  1236
                         QX ← 0;                                                                05180000 T  0421:2
                        3226  LITC  0000  0000
                        3227  LITC  0225  1124
                        3230  ISD         4121
                         IO(LOADER,@240000540000000);                                           05190000 T  0422:1
                        3231  MKS         0441
                        3232  OPDC  0204  1022
                        3233  DESC  1777  7777
                        3234  NOP         0055
                        3235  OPDC  0247  1236
                         IF QX ≠ 2 THEN                                                         05200000 T  0423:2
                        3236  OPDC  0225  1126
                        3237  LITC  0002  0010
                        3240  NEQ         0425
                        3241  LITC  0000  0000
                            STREAM(L←LOADER,A←16); BEGIN SI←L; DS←20 WDS END                    05210000 T  0424:1
                        3243  NOP         0055
                        3244  OPDC  0204  1022
                        3245  LITC  0020  0100
                        3243  MKS         0441
                        3246              4441
                        3247  RSA   0002  0253
                        3250  TRW   0024  2405
                         ELSE                                                                   05220000 T  0426:1
                        3251  LITC  0020  0100
                            STREAM(LOADBUTTON,A←@20); BEGIN SI←LOADBUTTON;DS←15 WDS END;        05230000 T  0426:2
                        3223  OPDC  0653  3256
3254  0740000000000000                                                          WDS END;        05230000 T  0426:2
                        3233  OPDC  0654  3262
3260  0240000540000000                                                          WDS END;        05230000 T  0426:2
                        3241  LITC  0005  0024
                        3242  LFC         2231
                        3264  NOP         0055
                        3265  LITC  0240  1200
                        3266  LOD         2021
                        3267  LITC  0020  0100
                        3264  MKS         0441
                        3270              4441
                        3271  RSA   0002  0253
                        3272  TRW   0017  1705
                         P(0,STS,0,STF);                                                        05240000 T  0430:3
                        3273  LITC  0020  0100
                        3252  LITC  0005  0024
                        3253  LFU         6231
                        3274  LITC  0000  0000
                        3275  LITC  0003  0014
                        3276              2141
                        3277  LITC  0000  0000
                        3300  LITC  0002  0010
                        3301              2141
                         GO TO TART;                                                            05250000 T  0432:2
                        3302  LITC  0640  3200
                        3303  LBU         6131
                         DO UNTIL FALSE;                                                        05260000 T  0433:0
                        3304  LITC  0000  0000
                        3305  LITC  0000  0000
                        3306  LFC         2231
                END OF WARM LOADER.                                                             05270000 T  0433:3
                                                                                                        SIZE= 0434 WORDS
NUMBER OF ERRORS DETECTED = 000.  COMPILATION TIME = 0059 SECONDS.
PRT SIZE=175 BASE ADDRESS=0434 CORE REQ=0704 DISK REQ=00780


 LABEL  0ESPOL  0COMPILE00187252? EXECUTE ESPOL/DISK                                                     ESPOL  /DISK
